{
	"artifacts/lab-2/SharedWallet.sol": {
		"SharedWallet": {
			"abi": [
				{
					"inputs": [],
					"stateMutability": "nonpayable",
					"type": "constructor"
				},
				{
					"inputs": [
						{
							"internalType": "address payable",
							"name": "_to",
							"type": "address"
						},
						{
							"internalType": "uint256",
							"name": "_amount",
							"type": "uint256"
						}
					],
					"name": "withdrawMoney",
					"outputs": [],
					"stateMutability": "nonpayable",
					"type": "function"
				},
				{
					"stateMutability": "payable",
					"type": "receive"
				}
			],
			"devdoc": {
				"kind": "dev",
				"methods": {},
				"version": 1
			},
			"evm": {
				"assembly": "    /* \"artifacts/lab-2/SharedWallet.sol\":62:825  contract SharedWallet {... */\n  mstore(0x40, 0x80)\n    /* \"artifacts/lab-2/SharedWallet.sol\":240:402  constructor() {... */\n  callvalue\n  dup1\n  iszero\n  tag_1\n  jumpi\n  0x00\n  dup1\n  revert\ntag_1:\n  pop\n    /* \"artifacts/lab-2/SharedWallet.sol\":385:395  msg.sender */\n  caller\n    /* \"artifacts/lab-2/SharedWallet.sol\":377:382  owner */\n  0x00\n  dup1\n    /* \"artifacts/lab-2/SharedWallet.sol\":377:395  owner = msg.sender */\n  0x0100\n  exp\n  dup2\n  sload\n  dup2\n  0xffffffffffffffffffffffffffffffffffffffff\n  mul\n  not\n  and\n  swap1\n  dup4\n  0xffffffffffffffffffffffffffffffffffffffff\n  and\n  mul\n  or\n  swap1\n  sstore\n  pop\n    /* \"artifacts/lab-2/SharedWallet.sol\":62:825  contract SharedWallet {... */\n  dataSize(sub_0)\n  dup1\n  dataOffset(sub_0)\n  0x00\n  codecopy\n  0x00\n  return\nstop\n\nsub_0: assembly {\n        /* \"artifacts/lab-2/SharedWallet.sol\":62:825  contract SharedWallet {... */\n      mstore(0x40, 0x80)\n      jumpi(tag_1, lt(calldatasize, 0x04))\n      shr(0xe0, calldataload(0x00))\n      dup1\n      0xf274c897\n      eq\n      tag_3\n      jumpi\n      jump(tag_2)\n    tag_1:\n      jumpi(tag_2, calldatasize)\n      stop\n    tag_2:\n      0x00\n      dup1\n      revert\n        /* \"artifacts/lab-2/SharedWallet.sol\":669:782  function withdrawMoney(address payable _to, uint _amount) public onlyOwner {... */\n    tag_3:\n      callvalue\n      dup1\n      iszero\n      tag_6\n      jumpi\n      0x00\n      dup1\n      revert\n    tag_6:\n      pop\n      tag_7\n      0x04\n      dup1\n      calldatasize\n      sub\n      dup2\n      add\n      swap1\n      tag_8\n      swap2\n      swap1\n      tag_9\n      jump\t// in\n    tag_8:\n      tag_10\n      jump\t// in\n    tag_7:\n      stop\n    tag_10:\n        /* \"artifacts/lab-2/SharedWallet.sol\":461:466  owner */\n      0x00\n      dup1\n      sload\n      swap1\n      0x0100\n      exp\n      swap1\n      div\n      0xffffffffffffffffffffffffffffffffffffffff\n      and\n        /* \"artifacts/lab-2/SharedWallet.sol\":447:466  msg.sender == owner */\n      0xffffffffffffffffffffffffffffffffffffffff\n      and\n        /* \"artifacts/lab-2/SharedWallet.sol\":447:457  msg.sender */\n      caller\n        /* \"artifacts/lab-2/SharedWallet.sol\":447:466  msg.sender == owner */\n      0xffffffffffffffffffffffffffffffffffffffff\n      and\n      eq\n        /* \"artifacts/lab-2/SharedWallet.sol\":439:490  require(msg.sender == owner, \"You are not allowed\") */\n      tag_12\n      jumpi\n      mload(0x40)\n      0x08c379a000000000000000000000000000000000000000000000000000000000\n      dup2\n      mstore\n      0x04\n      add\n      tag_13\n      swap1\n      tag_14\n      jump\t// in\n    tag_13:\n      mload(0x40)\n      dup1\n      swap2\n      sub\n      swap1\n      revert\n    tag_12:\n        /* \"artifacts/lab-2/SharedWallet.sol\":754:757  _to */\n      dup2\n        /* \"artifacts/lab-2/SharedWallet.sol\":754:766  _to.transfer */\n      0xffffffffffffffffffffffffffffffffffffffff\n      and\n        /* \"artifacts/lab-2/SharedWallet.sol\":754:775  _to.transfer(_amount) */\n      0x08fc\n        /* \"artifacts/lab-2/SharedWallet.sol\":767:774  _amount */\n      dup3\n        /* \"artifacts/lab-2/SharedWallet.sol\":754:775  _to.transfer(_amount) */\n      swap1\n      dup2\n      iszero\n      mul\n      swap1\n      mload(0x40)\n      0x00\n      mload(0x40)\n      dup1\n      dup4\n      sub\n      dup2\n      dup6\n      dup9\n      dup9\n      call\n      swap4\n      pop\n      pop\n      pop\n      pop\n      iszero\n      dup1\n      iszero\n      tag_17\n      jumpi\n      returndatasize\n      0x00\n      dup1\n      returndatacopy\n      revert(0x00, returndatasize)\n    tag_17:\n      pop\n        /* \"artifacts/lab-2/SharedWallet.sol\":669:782  function withdrawMoney(address payable _to, uint _amount) public onlyOwner {... */\n      pop\n      pop\n      jump\t// out\n        /* \"#utility.yul\":7:162   */\n    tag_19:\n        /* \"#utility.yul\":61:66   */\n      0x00\n        /* \"#utility.yul\":99:105   */\n      dup2\n        /* \"#utility.yul\":86:106   */\n      calldataload\n        /* \"#utility.yul\":77:106   */\n      swap1\n      pop\n        /* \"#utility.yul\":115:156   */\n      tag_21\n        /* \"#utility.yul\":150:155   */\n      dup2\n        /* \"#utility.yul\":115:156   */\n      tag_22\n      jump\t// in\n    tag_21:\n        /* \"#utility.yul\":7:162   */\n      swap3\n      swap2\n      pop\n      pop\n      jump\t// out\n        /* \"#utility.yul\":168:307   */\n    tag_23:\n        /* \"#utility.yul\":214:219   */\n      0x00\n        /* \"#utility.yul\":252:258   */\n      dup2\n        /* \"#utility.yul\":239:259   */\n      calldataload\n        /* \"#utility.yul\":230:259   */\n      swap1\n      pop\n        /* \"#utility.yul\":268:301   */\n      tag_25\n        /* \"#utility.yul\":295:300   */\n      dup2\n        /* \"#utility.yul\":268:301   */\n      tag_26\n      jump\t// in\n    tag_25:\n        /* \"#utility.yul\":168:307   */\n      swap3\n      swap2\n      pop\n      pop\n      jump\t// out\n        /* \"#utility.yul\":313:803   */\n    tag_9:\n        /* \"#utility.yul\":389:395   */\n      0x00\n        /* \"#utility.yul\":397:403   */\n      dup1\n        /* \"#utility.yul\":446:448   */\n      0x40\n        /* \"#utility.yul\":434:443   */\n      dup4\n        /* \"#utility.yul\":425:432   */\n      dup6\n        /* \"#utility.yul\":421:444   */\n      sub\n        /* \"#utility.yul\":417:449   */\n      slt\n        /* \"#utility.yul\":414:533   */\n      iszero\n      tag_28\n      jumpi\n        /* \"#utility.yul\":452:531   */\n      tag_29\n      tag_30\n      jump\t// in\n    tag_29:\n        /* \"#utility.yul\":414:533   */\n    tag_28:\n        /* \"#utility.yul\":572:573   */\n      0x00\n        /* \"#utility.yul\":597:658   */\n      tag_31\n        /* \"#utility.yul\":650:657   */\n      dup6\n        /* \"#utility.yul\":641:647   */\n      dup3\n        /* \"#utility.yul\":630:639   */\n      dup7\n        /* \"#utility.yul\":626:648   */\n      add\n        /* \"#utility.yul\":597:658   */\n      tag_19\n      jump\t// in\n    tag_31:\n        /* \"#utility.yul\":587:658   */\n      swap3\n      pop\n        /* \"#utility.yul\":543:668   */\n      pop\n        /* \"#utility.yul\":707:709   */\n      0x20\n        /* \"#utility.yul\":733:786   */\n      tag_32\n        /* \"#utility.yul\":778:785   */\n      dup6\n        /* \"#utility.yul\":769:775   */\n      dup3\n        /* \"#utility.yul\":758:767   */\n      dup7\n        /* \"#utility.yul\":754:776   */\n      add\n        /* \"#utility.yul\":733:786   */\n      tag_23\n      jump\t// in\n    tag_32:\n        /* \"#utility.yul\":723:786   */\n      swap2\n      pop\n        /* \"#utility.yul\":678:796   */\n      pop\n        /* \"#utility.yul\":313:803   */\n      swap3\n      pop\n      swap3\n      swap1\n      pop\n      jump\t// out\n        /* \"#utility.yul\":809:1175   */\n    tag_33:\n        /* \"#utility.yul\":951:954   */\n      0x00\n        /* \"#utility.yul\":972:1039   */\n      tag_35\n        /* \"#utility.yul\":1036:1038   */\n      0x13\n        /* \"#utility.yul\":1031:1034   */\n      dup4\n        /* \"#utility.yul\":972:1039   */\n      tag_36\n      jump\t// in\n    tag_35:\n        /* \"#utility.yul\":965:1039   */\n      swap2\n      pop\n        /* \"#utility.yul\":1048:1141   */\n      tag_37\n        /* \"#utility.yul\":1137:1140   */\n      dup3\n        /* \"#utility.yul\":1048:1141   */\n      tag_38\n      jump\t// in\n    tag_37:\n        /* \"#utility.yul\":1166:1168   */\n      0x20\n        /* \"#utility.yul\":1161:1164   */\n      dup3\n        /* \"#utility.yul\":1157:1169   */\n      add\n        /* \"#utility.yul\":1150:1169   */\n      swap1\n      pop\n        /* \"#utility.yul\":809:1175   */\n      swap2\n      swap1\n      pop\n      jump\t// out\n        /* \"#utility.yul\":1181:1600   */\n    tag_14:\n        /* \"#utility.yul\":1347:1351   */\n      0x00\n        /* \"#utility.yul\":1385:1387   */\n      0x20\n        /* \"#utility.yul\":1374:1383   */\n      dup3\n        /* \"#utility.yul\":1370:1388   */\n      add\n        /* \"#utility.yul\":1362:1388   */\n      swap1\n      pop\n        /* \"#utility.yul\":1434:1443   */\n      dup2\n        /* \"#utility.yul\":1428:1432   */\n      dup2\n        /* \"#utility.yul\":1424:1444   */\n      sub\n        /* \"#utility.yul\":1420:1421   */\n      0x00\n        /* \"#utility.yul\":1409:1418   */\n      dup4\n        /* \"#utility.yul\":1405:1422   */\n      add\n        /* \"#utility.yul\":1398:1445   */\n      mstore\n        /* \"#utility.yul\":1462:1593   */\n      tag_40\n        /* \"#utility.yul\":1588:1592   */\n      dup2\n        /* \"#utility.yul\":1462:1593   */\n      tag_33\n      jump\t// in\n    tag_40:\n        /* \"#utility.yul\":1454:1593   */\n      swap1\n      pop\n        /* \"#utility.yul\":1181:1600   */\n      swap2\n      swap1\n      pop\n      jump\t// out\n        /* \"#utility.yul\":1687:1856   */\n    tag_36:\n        /* \"#utility.yul\":1771:1782   */\n      0x00\n        /* \"#utility.yul\":1805:1811   */\n      dup3\n        /* \"#utility.yul\":1800:1803   */\n      dup3\n        /* \"#utility.yul\":1793:1812   */\n      mstore\n        /* \"#utility.yul\":1845:1849   */\n      0x20\n        /* \"#utility.yul\":1840:1843   */\n      dup3\n        /* \"#utility.yul\":1836:1850   */\n      add\n        /* \"#utility.yul\":1821:1850   */\n      swap1\n      pop\n        /* \"#utility.yul\":1687:1856   */\n      swap3\n      swap2\n      pop\n      pop\n      jump\t// out\n        /* \"#utility.yul\":1862:1966   */\n    tag_44:\n        /* \"#utility.yul\":1907:1914   */\n      0x00\n        /* \"#utility.yul\":1936:1960   */\n      tag_46\n        /* \"#utility.yul\":1954:1959   */\n      dup3\n        /* \"#utility.yul\":1936:1960   */\n      tag_47\n      jump\t// in\n    tag_46:\n        /* \"#utility.yul\":1925:1960   */\n      swap1\n      pop\n        /* \"#utility.yul\":1862:1966   */\n      swap2\n      swap1\n      pop\n      jump\t// out\n        /* \"#utility.yul\":1972:2098   */\n    tag_47:\n        /* \"#utility.yul\":2009:2016   */\n      0x00\n        /* \"#utility.yul\":2049:2091   */\n      0xffffffffffffffffffffffffffffffffffffffff\n        /* \"#utility.yul\":2042:2047   */\n      dup3\n        /* \"#utility.yul\":2038:2092   */\n      and\n        /* \"#utility.yul\":2027:2092   */\n      swap1\n      pop\n        /* \"#utility.yul\":1972:2098   */\n      swap2\n      swap1\n      pop\n      jump\t// out\n        /* \"#utility.yul\":2104:2181   */\n    tag_49:\n        /* \"#utility.yul\":2141:2148   */\n      0x00\n        /* \"#utility.yul\":2170:2175   */\n      dup2\n        /* \"#utility.yul\":2159:2175   */\n      swap1\n      pop\n        /* \"#utility.yul\":2104:2181   */\n      swap2\n      swap1\n      pop\n      jump\t// out\n        /* \"#utility.yul\":2310:2427   */\n    tag_30:\n        /* \"#utility.yul\":2419:2420   */\n      0x00\n        /* \"#utility.yul\":2416:2417   */\n      dup1\n        /* \"#utility.yul\":2409:2421   */\n      revert\n        /* \"#utility.yul\":2433:2602   */\n    tag_38:\n        /* \"#utility.yul\":2573:2594   */\n      0x596f7520617265206e6f7420616c6c6f77656400000000000000000000000000\n        /* \"#utility.yul\":2569:2570   */\n      0x00\n        /* \"#utility.yul\":2561:2567   */\n      dup3\n        /* \"#utility.yul\":2557:2571   */\n      add\n        /* \"#utility.yul\":2550:2595   */\n      mstore\n        /* \"#utility.yul\":2433:2602   */\n      pop\n      jump\t// out\n        /* \"#utility.yul\":2608:2746   */\n    tag_22:\n        /* \"#utility.yul\":2689:2721   */\n      tag_56\n        /* \"#utility.yul\":2715:2720   */\n      dup2\n        /* \"#utility.yul\":2689:2721   */\n      tag_44\n      jump\t// in\n    tag_56:\n        /* \"#utility.yul\":2682:2687   */\n      dup2\n        /* \"#utility.yul\":2679:2722   */\n      eq\n        /* \"#utility.yul\":2669:2740   */\n      tag_57\n      jumpi\n        /* \"#utility.yul\":2736:2737   */\n      0x00\n        /* \"#utility.yul\":2733:2734   */\n      dup1\n        /* \"#utility.yul\":2726:2738   */\n      revert\n        /* \"#utility.yul\":2669:2740   */\n    tag_57:\n        /* \"#utility.yul\":2608:2746   */\n      pop\n      jump\t// out\n        /* \"#utility.yul\":2752:2874   */\n    tag_26:\n        /* \"#utility.yul\":2825:2849   */\n      tag_59\n        /* \"#utility.yul\":2843:2848   */\n      dup2\n        /* \"#utility.yul\":2825:2849   */\n      tag_49\n      jump\t// in\n    tag_59:\n        /* \"#utility.yul\":2818:2823   */\n      dup2\n        /* \"#utility.yul\":2815:2850   */\n      eq\n        /* \"#utility.yul\":2805:2868   */\n      tag_60\n      jumpi\n        /* \"#utility.yul\":2864:2865   */\n      0x00\n        /* \"#utility.yul\":2861:2862   */\n      dup1\n        /* \"#utility.yul\":2854:2866   */\n      revert\n        /* \"#utility.yul\":2805:2868   */\n    tag_60:\n        /* \"#utility.yul\":2752:2874   */\n      pop\n      jump\t// out\n\n    auxdata: 0xa2646970667358221220397710e097f400f0440caa3d97ad106ca93bda63ef76ee0c90f517afc0b0aaf964736f6c63430008070033\n}\n",
				"bytecode": {
					"linkReferences": {},
					"object": "608060405234801561001057600080fd5b50336000806101000a81548173ffffffffffffffffffffffffffffffffffffffff021916908373ffffffffffffffffffffffffffffffffffffffff1602179055506102bc806100606000396000f3fe6080604052600436106100225760003560e01c8063f274c8971461002e57610029565b3661002957005b600080fd5b34801561003a57600080fd5b506100556004803603810190610050919061015a565b610057565b005b60008054906101000a900473ffffffffffffffffffffffffffffffffffffffff1673ffffffffffffffffffffffffffffffffffffffff163373ffffffffffffffffffffffffffffffffffffffff16146100e5576040517f08c379a00000000000000000000000000000000000000000000000000000000081526004016100dc906101bd565b60405180910390fd5b8173ffffffffffffffffffffffffffffffffffffffff166108fc829081150290604051600060405180830381858888f1935050505015801561012b573d6000803e3d6000fd5b505050565b60008135905061013f81610258565b92915050565b6000813590506101548161026f565b92915050565b600080604083850312156101715761017061022a565b5b600061017f85828601610130565b925050602061019085828601610145565b9150509250929050565b60006101a76013836101dd565b91506101b28261022f565b602082019050919050565b600060208201905081810360008301526101d68161019a565b9050919050565b600082825260208201905092915050565b60006101f982610200565b9050919050565b600073ffffffffffffffffffffffffffffffffffffffff82169050919050565b6000819050919050565b600080fd5b7f596f7520617265206e6f7420616c6c6f77656400000000000000000000000000600082015250565b610261816101ee565b811461026c57600080fd5b50565b61027881610220565b811461028357600080fd5b5056fea2646970667358221220397710e097f400f0440caa3d97ad106ca93bda63ef76ee0c90f517afc0b0aaf964736f6c63430008070033",
					"opcodes": "PUSH1 0x80 PUSH1 0x40 MSTORE CALLVALUE DUP1 ISZERO PUSH2 0x10 JUMPI PUSH1 0x0 DUP1 REVERT JUMPDEST POP CALLER PUSH1 0x0 DUP1 PUSH2 0x100 EXP DUP2 SLOAD DUP2 PUSH20 0xFFFFFFFFFFFFFFFFFFFFFFFFFFFFFFFFFFFFFFFF MUL NOT AND SWAP1 DUP4 PUSH20 0xFFFFFFFFFFFFFFFFFFFFFFFFFFFFFFFFFFFFFFFF AND MUL OR SWAP1 SSTORE POP PUSH2 0x2BC DUP1 PUSH2 0x60 PUSH1 0x0 CODECOPY PUSH1 0x0 RETURN INVALID PUSH1 0x80 PUSH1 0x40 MSTORE PUSH1 0x4 CALLDATASIZE LT PUSH2 0x22 JUMPI PUSH1 0x0 CALLDATALOAD PUSH1 0xE0 SHR DUP1 PUSH4 0xF274C897 EQ PUSH2 0x2E JUMPI PUSH2 0x29 JUMP JUMPDEST CALLDATASIZE PUSH2 0x29 JUMPI STOP JUMPDEST PUSH1 0x0 DUP1 REVERT JUMPDEST CALLVALUE DUP1 ISZERO PUSH2 0x3A JUMPI PUSH1 0x0 DUP1 REVERT JUMPDEST POP PUSH2 0x55 PUSH1 0x4 DUP1 CALLDATASIZE SUB DUP2 ADD SWAP1 PUSH2 0x50 SWAP2 SWAP1 PUSH2 0x15A JUMP JUMPDEST PUSH2 0x57 JUMP JUMPDEST STOP JUMPDEST PUSH1 0x0 DUP1 SLOAD SWAP1 PUSH2 0x100 EXP SWAP1 DIV PUSH20 0xFFFFFFFFFFFFFFFFFFFFFFFFFFFFFFFFFFFFFFFF AND PUSH20 0xFFFFFFFFFFFFFFFFFFFFFFFFFFFFFFFFFFFFFFFF AND CALLER PUSH20 0xFFFFFFFFFFFFFFFFFFFFFFFFFFFFFFFFFFFFFFFF AND EQ PUSH2 0xE5 JUMPI PUSH1 0x40 MLOAD PUSH32 0x8C379A000000000000000000000000000000000000000000000000000000000 DUP2 MSTORE PUSH1 0x4 ADD PUSH2 0xDC SWAP1 PUSH2 0x1BD JUMP JUMPDEST PUSH1 0x40 MLOAD DUP1 SWAP2 SUB SWAP1 REVERT JUMPDEST DUP2 PUSH20 0xFFFFFFFFFFFFFFFFFFFFFFFFFFFFFFFFFFFFFFFF AND PUSH2 0x8FC DUP3 SWAP1 DUP2 ISZERO MUL SWAP1 PUSH1 0x40 MLOAD PUSH1 0x0 PUSH1 0x40 MLOAD DUP1 DUP4 SUB DUP2 DUP6 DUP9 DUP9 CALL SWAP4 POP POP POP POP ISZERO DUP1 ISZERO PUSH2 0x12B JUMPI RETURNDATASIZE PUSH1 0x0 DUP1 RETURNDATACOPY RETURNDATASIZE PUSH1 0x0 REVERT JUMPDEST POP POP POP JUMP JUMPDEST PUSH1 0x0 DUP2 CALLDATALOAD SWAP1 POP PUSH2 0x13F DUP2 PUSH2 0x258 JUMP JUMPDEST SWAP3 SWAP2 POP POP JUMP JUMPDEST PUSH1 0x0 DUP2 CALLDATALOAD SWAP1 POP PUSH2 0x154 DUP2 PUSH2 0x26F JUMP JUMPDEST SWAP3 SWAP2 POP POP JUMP JUMPDEST PUSH1 0x0 DUP1 PUSH1 0x40 DUP4 DUP6 SUB SLT ISZERO PUSH2 0x171 JUMPI PUSH2 0x170 PUSH2 0x22A JUMP JUMPDEST JUMPDEST PUSH1 0x0 PUSH2 0x17F DUP6 DUP3 DUP7 ADD PUSH2 0x130 JUMP JUMPDEST SWAP3 POP POP PUSH1 0x20 PUSH2 0x190 DUP6 DUP3 DUP7 ADD PUSH2 0x145 JUMP JUMPDEST SWAP2 POP POP SWAP3 POP SWAP3 SWAP1 POP JUMP JUMPDEST PUSH1 0x0 PUSH2 0x1A7 PUSH1 0x13 DUP4 PUSH2 0x1DD JUMP JUMPDEST SWAP2 POP PUSH2 0x1B2 DUP3 PUSH2 0x22F JUMP JUMPDEST PUSH1 0x20 DUP3 ADD SWAP1 POP SWAP2 SWAP1 POP JUMP JUMPDEST PUSH1 0x0 PUSH1 0x20 DUP3 ADD SWAP1 POP DUP2 DUP2 SUB PUSH1 0x0 DUP4 ADD MSTORE PUSH2 0x1D6 DUP2 PUSH2 0x19A JUMP JUMPDEST SWAP1 POP SWAP2 SWAP1 POP JUMP JUMPDEST PUSH1 0x0 DUP3 DUP3 MSTORE PUSH1 0x20 DUP3 ADD SWAP1 POP SWAP3 SWAP2 POP POP JUMP JUMPDEST PUSH1 0x0 PUSH2 0x1F9 DUP3 PUSH2 0x200 JUMP JUMPDEST SWAP1 POP SWAP2 SWAP1 POP JUMP JUMPDEST PUSH1 0x0 PUSH20 0xFFFFFFFFFFFFFFFFFFFFFFFFFFFFFFFFFFFFFFFF DUP3 AND SWAP1 POP SWAP2 SWAP1 POP JUMP JUMPDEST PUSH1 0x0 DUP2 SWAP1 POP SWAP2 SWAP1 POP JUMP JUMPDEST PUSH1 0x0 DUP1 REVERT JUMPDEST PUSH32 0x596F7520617265206E6F7420616C6C6F77656400000000000000000000000000 PUSH1 0x0 DUP3 ADD MSTORE POP JUMP JUMPDEST PUSH2 0x261 DUP2 PUSH2 0x1EE JUMP JUMPDEST DUP2 EQ PUSH2 0x26C JUMPI PUSH1 0x0 DUP1 REVERT JUMPDEST POP JUMP JUMPDEST PUSH2 0x278 DUP2 PUSH2 0x220 JUMP JUMPDEST DUP2 EQ PUSH2 0x283 JUMPI PUSH1 0x0 DUP1 REVERT JUMPDEST POP JUMP INVALID LOG2 PUSH5 0x6970667358 0x22 SLT KECCAK256 CODECOPY PUSH24 0x10E097F400F0440CAA3D97AD106CA93BDA63EF76EE0C90F5 OR 0xAF 0xC0 0xB0 0xAA 0xF9 PUSH5 0x736F6C6343 STOP ADDMOD SMOD STOP CALLER "
				},
				"gasEstimates": {
					"creation": {
						"codeDepositCost": "140000",
						"executionCost": "24449",
						"totalCost": "164449"
					},
					"external": {
						"withdrawMoney(address,uint256)": "infinite"
					}
				},
				"methodIdentifiers": {
					"withdrawMoney(address,uint256)": "f274c897"
				}
			},
			"storageLayout": {
				"storage": [
					{
						"astId": 3,
						"contract": "artifacts/lab-2/SharedWallet.sol:SharedWallet",
						"label": "owner",
						"offset": 0,
						"slot": "0",
						"type": "t_address"
					}
				],
				"types": {
					"t_address": {
						"encoding": "inplace",
						"label": "address",
						"numberOfBytes": "20"
					}
				}
			},
			"userdoc": {
				"kind": "user",
				"methods": {},
				"version": 1
			}
		}
	}
}