{
	"artifacts/lab-2/SharedWalletOptimized.sol": {
		"Allowance": {
			"abi": [
				{
					"anonymous": false,
					"inputs": [
						{
							"indexed": true,
							"internalType": "address",
							"name": "_forWho",
							"type": "address"
						},
						{
							"indexed": true,
							"internalType": "address",
							"name": "_byWhom",
							"type": "address"
						},
						{
							"indexed": false,
							"internalType": "uint256",
							"name": "_oldAmount",
							"type": "uint256"
						},
						{
							"indexed": false,
							"internalType": "uint256",
							"name": "_newAmount",
							"type": "uint256"
						}
					],
					"name": "AllowanceChanged",
					"type": "event"
				},
				{
					"anonymous": false,
					"inputs": [
						{
							"indexed": true,
							"internalType": "address",
							"name": "previousOwner",
							"type": "address"
						},
						{
							"indexed": true,
							"internalType": "address",
							"name": "newOwner",
							"type": "address"
						}
					],
					"name": "OwnershipTransferred",
					"type": "event"
				},
				{
					"inputs": [
						{
							"internalType": "address",
							"name": "_who",
							"type": "address"
						},
						{
							"internalType": "uint256",
							"name": "_amount",
							"type": "uint256"
						}
					],
					"name": "addAllowance",
					"outputs": [],
					"stateMutability": "nonpayable",
					"type": "function"
				},
				{
					"inputs": [
						{
							"internalType": "address",
							"name": "",
							"type": "address"
						}
					],
					"name": "allowance",
					"outputs": [
						{
							"internalType": "uint256",
							"name": "",
							"type": "uint256"
						}
					],
					"stateMutability": "view",
					"type": "function"
				},
				{
					"inputs": [],
					"name": "owner",
					"outputs": [
						{
							"internalType": "address",
							"name": "",
							"type": "address"
						}
					],
					"stateMutability": "view",
					"type": "function"
				},
				{
					"inputs": [],
					"name": "renounceOwnership",
					"outputs": [],
					"stateMutability": "nonpayable",
					"type": "function"
				},
				{
					"inputs": [
						{
							"internalType": "address",
							"name": "newOwner",
							"type": "address"
						}
					],
					"name": "transferOwnership",
					"outputs": [],
					"stateMutability": "nonpayable",
					"type": "function"
				}
			],
			"devdoc": {
				"kind": "dev",
				"methods": {
					"owner()": {
						"details": "Returns the address of the current owner."
					},
					"renounceOwnership()": {
						"details": "Leaves the contract without owner. It will not be possible to call `onlyOwner` functions anymore. Can only be called by the current owner. NOTE: Renouncing ownership will leave the contract without an owner, thereby removing any functionality that is only available to the owner."
					},
					"transferOwnership(address)": {
						"details": "Transfers ownership of the contract to a new account (`newOwner`). Can only be called by the current owner."
					}
				},
				"version": 1
			},
			"evm": {
				"assembly": "    /* \"artifacts/lab-2/SharedWalletOptimized.sol\":236:1377  contract Allowance is Ownable {... */\n  mstore(0x40, 0x80)\n  callvalue\n  dup1\n  iszero\n  tag_1\n  jumpi\n  0x00\n  dup1\n  revert\ntag_1:\n  pop\n    /* \"https://github.com/OpenZeppelin/openzeppelin-contracts/blob/master/contracts/access/Ownable.sol\":921:953  _transferOwnership(_msgSender()) */\n  tag_4\n    /* \"https://github.com/OpenZeppelin/openzeppelin-contracts/blob/master/contracts/access/Ownable.sol\":940:952  _msgSender() */\n  tag_5\n    /* \"https://github.com/OpenZeppelin/openzeppelin-contracts/blob/master/contracts/access/Ownable.sol\":940:950  _msgSender */\n  shl(0x20, tag_6)\n    /* \"https://github.com/OpenZeppelin/openzeppelin-contracts/blob/master/contracts/access/Ownable.sol\":940:952  _msgSender() */\n  0x20\n  shr\n  jump\t// in\ntag_5:\n    /* \"https://github.com/OpenZeppelin/openzeppelin-contracts/blob/master/contracts/access/Ownable.sol\":921:939  _transferOwnership */\n  shl(0x20, tag_7)\n    /* \"https://github.com/OpenZeppelin/openzeppelin-contracts/blob/master/contracts/access/Ownable.sol\":921:953  _transferOwnership(_msgSender()) */\n  0x20\n  shr\n  jump\t// in\ntag_4:\n    /* \"artifacts/lab-2/SharedWalletOptimized.sol\":236:1377  contract Allowance is Ownable {... */\n  jump(tag_8)\n    /* \"https://github.com/OpenZeppelin/openzeppelin-contracts/blob/master/contracts/utils/Context.sol\":640:736  function _msgSender() internal view virtual returns (address) {... */\ntag_6:\n    /* \"https://github.com/OpenZeppelin/openzeppelin-contracts/blob/master/contracts/utils/Context.sol\":693:700  address */\n  0x00\n    /* \"https://github.com/OpenZeppelin/openzeppelin-contracts/blob/master/contracts/utils/Context.sol\":719:729  msg.sender */\n  caller\n    /* \"https://github.com/OpenZeppelin/openzeppelin-contracts/blob/master/contracts/utils/Context.sol\":712:729  return msg.sender */\n  swap1\n  pop\n    /* \"https://github.com/OpenZeppelin/openzeppelin-contracts/blob/master/contracts/utils/Context.sol\":640:736  function _msgSender() internal view virtual returns (address) {... */\n  swap1\n  jump\t// out\n    /* \"https://github.com/OpenZeppelin/openzeppelin-contracts/blob/master/contracts/access/Ownable.sol\":2270:2457  function _transferOwnership(address newOwner) internal virtual {... */\ntag_7:\n    /* \"https://github.com/OpenZeppelin/openzeppelin-contracts/blob/master/contracts/access/Ownable.sol\":2343:2359  address oldOwner */\n  0x00\n    /* \"https://github.com/OpenZeppelin/openzeppelin-contracts/blob/master/contracts/access/Ownable.sol\":2362:2368  _owner */\n  dup1\n  0x00\n  swap1\n  sload\n  swap1\n  0x0100\n  exp\n  swap1\n  div\n  0xffffffffffffffffffffffffffffffffffffffff\n  and\n    /* \"https://github.com/OpenZeppelin/openzeppelin-contracts/blob/master/contracts/access/Ownable.sol\":2343:2368  address oldOwner = _owner */\n  swap1\n  pop\n    /* \"https://github.com/OpenZeppelin/openzeppelin-contracts/blob/master/contracts/access/Ownable.sol\":2387:2395  newOwner */\n  dup2\n    /* \"https://github.com/OpenZeppelin/openzeppelin-contracts/blob/master/contracts/access/Ownable.sol\":2378:2384  _owner */\n  0x00\n  dup1\n    /* \"https://github.com/OpenZeppelin/openzeppelin-contracts/blob/master/contracts/access/Ownable.sol\":2378:2395  _owner = newOwner */\n  0x0100\n  exp\n  dup2\n  sload\n  dup2\n  0xffffffffffffffffffffffffffffffffffffffff\n  mul\n  not\n  and\n  swap1\n  dup4\n  0xffffffffffffffffffffffffffffffffffffffff\n  and\n  mul\n  or\n  swap1\n  sstore\n  pop\n    /* \"https://github.com/OpenZeppelin/openzeppelin-contracts/blob/master/contracts/access/Ownable.sol\":2441:2449  newOwner */\n  dup2\n    /* \"https://github.com/OpenZeppelin/openzeppelin-contracts/blob/master/contracts/access/Ownable.sol\":2410:2450  OwnershipTransferred(oldOwner, newOwner) */\n  0xffffffffffffffffffffffffffffffffffffffff\n  and\n    /* \"https://github.com/OpenZeppelin/openzeppelin-contracts/blob/master/contracts/access/Ownable.sol\":2431:2439  oldOwner */\n  dup2\n    /* \"https://github.com/OpenZeppelin/openzeppelin-contracts/blob/master/contracts/access/Ownable.sol\":2410:2450  OwnershipTransferred(oldOwner, newOwner) */\n  0xffffffffffffffffffffffffffffffffffffffff\n  and\n  0x8be0079c531659141344cd1fd0a4f28419497f9722a3daafe3b4186f6b6457e0\n  mload(0x40)\n  mload(0x40)\n  dup1\n  swap2\n  sub\n  swap1\n  log3\n    /* \"https://github.com/OpenZeppelin/openzeppelin-contracts/blob/master/contracts/access/Ownable.sol\":2333:2457  {... */\n  pop\n    /* \"https://github.com/OpenZeppelin/openzeppelin-contracts/blob/master/contracts/access/Ownable.sol\":2270:2457  function _transferOwnership(address newOwner) internal virtual {... */\n  pop\n  jump\t// out\n    /* \"artifacts/lab-2/SharedWalletOptimized.sol\":236:1377  contract Allowance is Ownable {... */\ntag_8:\n  dataSize(sub_0)\n  dup1\n  dataOffset(sub_0)\n  0x00\n  codecopy\n  0x00\n  return\nstop\n\nsub_0: assembly {\n        /* \"artifacts/lab-2/SharedWalletOptimized.sol\":236:1377  contract Allowance is Ownable {... */\n      mstore(0x40, 0x80)\n      callvalue\n      dup1\n      iszero\n      tag_1\n      jumpi\n      0x00\n      dup1\n      revert\n    tag_1:\n      pop\n      jumpi(tag_2, lt(calldatasize, 0x04))\n      shr(0xe0, calldataload(0x00))\n      dup1\n      0x3e5beab9\n      eq\n      tag_3\n      jumpi\n      dup1\n      0x715018a6\n      eq\n      tag_4\n      jumpi\n      dup1\n      0x8da5cb5b\n      eq\n      tag_5\n      jumpi\n      dup1\n      0xf2fde38b\n      eq\n      tag_6\n      jumpi\n      dup1\n      0xf3c40c4b\n      eq\n      tag_7\n      jumpi\n    tag_2:\n      0x00\n      dup1\n      revert\n        /* \"artifacts/lab-2/SharedWalletOptimized.sol\":473:514  mapping(address => uint) public allowance */\n    tag_3:\n      tag_8\n      0x04\n      dup1\n      calldatasize\n      sub\n      dup2\n      add\n      swap1\n      tag_9\n      swap2\n      swap1\n      tag_10\n      jump\t// in\n    tag_9:\n      tag_11\n      jump\t// in\n    tag_8:\n      mload(0x40)\n      tag_12\n      swap2\n      swap1\n      tag_13\n      jump\t// in\n    tag_12:\n      mload(0x40)\n      dup1\n      swap2\n      sub\n      swap1\n      return\n        /* \"https://github.com/OpenZeppelin/openzeppelin-contracts/blob/master/contracts/access/Ownable.sol\":1668:1769  function renounceOwnership() public virtual onlyOwner {... */\n    tag_4:\n      tag_14\n      tag_15\n      jump\t// in\n    tag_14:\n      stop\n        /* \"https://github.com/OpenZeppelin/openzeppelin-contracts/blob/master/contracts/access/Ownable.sol\":1036:1121  function owner() public view virtual returns (address) {... */\n    tag_5:\n      tag_16\n      tag_17\n      jump\t// in\n    tag_16:\n      mload(0x40)\n      tag_18\n      swap2\n      swap1\n      tag_19\n      jump\t// in\n    tag_18:\n      mload(0x40)\n      dup1\n      swap2\n      sub\n      swap1\n      return\n        /* \"https://github.com/OpenZeppelin/openzeppelin-contracts/blob/master/contracts/access/Ownable.sol\":1918:2116  function transferOwnership(address newOwner) public virtual onlyOwner {... */\n    tag_6:\n      tag_20\n      0x04\n      dup1\n      calldatasize\n      sub\n      dup2\n      add\n      swap1\n      tag_21\n      swap2\n      swap1\n      tag_10\n      jump\t// in\n    tag_21:\n      tag_22\n      jump\t// in\n    tag_20:\n      stop\n        /* \"artifacts/lab-2/SharedWalletOptimized.sol\":593:777  function addAllowance(address _who, uint _amount) public onlyOwner {... */\n    tag_7:\n      tag_23\n      0x04\n      dup1\n      calldatasize\n      sub\n      dup2\n      add\n      swap1\n      tag_24\n      swap2\n      swap1\n      tag_25\n      jump\t// in\n    tag_24:\n      tag_26\n      jump\t// in\n    tag_23:\n      stop\n        /* \"artifacts/lab-2/SharedWalletOptimized.sol\":473:514  mapping(address => uint) public allowance */\n    tag_11:\n      mstore(0x20, 0x01)\n      dup1\n      0x00\n      mstore\n      keccak256(0x00, 0x40)\n      0x00\n      swap2\n      pop\n      swap1\n      pop\n      sload\n      dup2\n      jump\t// out\n        /* \"https://github.com/OpenZeppelin/openzeppelin-contracts/blob/master/contracts/access/Ownable.sol\":1668:1769  function renounceOwnership() public virtual onlyOwner {... */\n    tag_15:\n        /* \"https://github.com/OpenZeppelin/openzeppelin-contracts/blob/master/contracts/access/Ownable.sol\":1259:1271  _msgSender() */\n      tag_28\n        /* \"https://github.com/OpenZeppelin/openzeppelin-contracts/blob/master/contracts/access/Ownable.sol\":1259:1269  _msgSender */\n      tag_29\n        /* \"https://github.com/OpenZeppelin/openzeppelin-contracts/blob/master/contracts/access/Ownable.sol\":1259:1271  _msgSender() */\n      jump\t// in\n    tag_28:\n        /* \"https://github.com/OpenZeppelin/openzeppelin-contracts/blob/master/contracts/access/Ownable.sol\":1248:1271  owner() == _msgSender() */\n      0xffffffffffffffffffffffffffffffffffffffff\n      and\n        /* \"https://github.com/OpenZeppelin/openzeppelin-contracts/blob/master/contracts/access/Ownable.sol\":1248:1255  owner() */\n      tag_30\n        /* \"https://github.com/OpenZeppelin/openzeppelin-contracts/blob/master/contracts/access/Ownable.sol\":1248:1253  owner */\n      tag_17\n        /* \"https://github.com/OpenZeppelin/openzeppelin-contracts/blob/master/contracts/access/Ownable.sol\":1248:1255  owner() */\n      jump\t// in\n    tag_30:\n        /* \"https://github.com/OpenZeppelin/openzeppelin-contracts/blob/master/contracts/access/Ownable.sol\":1248:1271  owner() == _msgSender() */\n      0xffffffffffffffffffffffffffffffffffffffff\n      and\n      eq\n        /* \"https://github.com/OpenZeppelin/openzeppelin-contracts/blob/master/contracts/access/Ownable.sol\":1240:1308  require(owner() == _msgSender(), \"Ownable: caller is not the owner\") */\n      tag_31\n      jumpi\n      mload(0x40)\n      0x08c379a000000000000000000000000000000000000000000000000000000000\n      dup2\n      mstore\n      0x04\n      add\n      tag_32\n      swap1\n      tag_33\n      jump\t// in\n    tag_32:\n      mload(0x40)\n      dup1\n      swap2\n      sub\n      swap1\n      revert\n    tag_31:\n        /* \"https://github.com/OpenZeppelin/openzeppelin-contracts/blob/master/contracts/access/Ownable.sol\":1732:1762  _transferOwnership(address(0)) */\n      tag_35\n        /* \"https://github.com/OpenZeppelin/openzeppelin-contracts/blob/master/contracts/access/Ownable.sol\":1759:1760  0 */\n      0x00\n        /* \"https://github.com/OpenZeppelin/openzeppelin-contracts/blob/master/contracts/access/Ownable.sol\":1732:1750  _transferOwnership */\n      tag_36\n        /* \"https://github.com/OpenZeppelin/openzeppelin-contracts/blob/master/contracts/access/Ownable.sol\":1732:1762  _transferOwnership(address(0)) */\n      jump\t// in\n    tag_35:\n        /* \"https://github.com/OpenZeppelin/openzeppelin-contracts/blob/master/contracts/access/Ownable.sol\":1668:1769  function renounceOwnership() public virtual onlyOwner {... */\n      jump\t// out\n        /* \"https://github.com/OpenZeppelin/openzeppelin-contracts/blob/master/contracts/access/Ownable.sol\":1036:1121  function owner() public view virtual returns (address) {... */\n    tag_17:\n        /* \"https://github.com/OpenZeppelin/openzeppelin-contracts/blob/master/contracts/access/Ownable.sol\":1082:1089  address */\n      0x00\n        /* \"https://github.com/OpenZeppelin/openzeppelin-contracts/blob/master/contracts/access/Ownable.sol\":1108:1114  _owner */\n      dup1\n      0x00\n      swap1\n      sload\n      swap1\n      0x0100\n      exp\n      swap1\n      div\n      0xffffffffffffffffffffffffffffffffffffffff\n      and\n        /* \"https://github.com/OpenZeppelin/openzeppelin-contracts/blob/master/contracts/access/Ownable.sol\":1101:1114  return _owner */\n      swap1\n      pop\n        /* \"https://github.com/OpenZeppelin/openzeppelin-contracts/blob/master/contracts/access/Ownable.sol\":1036:1121  function owner() public view virtual returns (address) {... */\n      swap1\n      jump\t// out\n        /* \"https://github.com/OpenZeppelin/openzeppelin-contracts/blob/master/contracts/access/Ownable.sol\":1918:2116  function transferOwnership(address newOwner) public virtual onlyOwner {... */\n    tag_22:\n        /* \"https://github.com/OpenZeppelin/openzeppelin-contracts/blob/master/contracts/access/Ownable.sol\":1259:1271  _msgSender() */\n      tag_39\n        /* \"https://github.com/OpenZeppelin/openzeppelin-contracts/blob/master/contracts/access/Ownable.sol\":1259:1269  _msgSender */\n      tag_29\n        /* \"https://github.com/OpenZeppelin/openzeppelin-contracts/blob/master/contracts/access/Ownable.sol\":1259:1271  _msgSender() */\n      jump\t// in\n    tag_39:\n        /* \"https://github.com/OpenZeppelin/openzeppelin-contracts/blob/master/contracts/access/Ownable.sol\":1248:1271  owner() == _msgSender() */\n      0xffffffffffffffffffffffffffffffffffffffff\n      and\n        /* \"https://github.com/OpenZeppelin/openzeppelin-contracts/blob/master/contracts/access/Ownable.sol\":1248:1255  owner() */\n      tag_40\n        /* \"https://github.com/OpenZeppelin/openzeppelin-contracts/blob/master/contracts/access/Ownable.sol\":1248:1253  owner */\n      tag_17\n        /* \"https://github.com/OpenZeppelin/openzeppelin-contracts/blob/master/contracts/access/Ownable.sol\":1248:1255  owner() */\n      jump\t// in\n    tag_40:\n        /* \"https://github.com/OpenZeppelin/openzeppelin-contracts/blob/master/contracts/access/Ownable.sol\":1248:1271  owner() == _msgSender() */\n      0xffffffffffffffffffffffffffffffffffffffff\n      and\n      eq\n        /* \"https://github.com/OpenZeppelin/openzeppelin-contracts/blob/master/contracts/access/Ownable.sol\":1240:1308  require(owner() == _msgSender(), \"Ownable: caller is not the owner\") */\n      tag_41\n      jumpi\n      mload(0x40)\n      0x08c379a000000000000000000000000000000000000000000000000000000000\n      dup2\n      mstore\n      0x04\n      add\n      tag_42\n      swap1\n      tag_33\n      jump\t// in\n    tag_42:\n      mload(0x40)\n      dup1\n      swap2\n      sub\n      swap1\n      revert\n    tag_41:\n        /* \"https://github.com/OpenZeppelin/openzeppelin-contracts/blob/master/contracts/access/Ownable.sol\":2026:2027  0 */\n      0x00\n        /* \"https://github.com/OpenZeppelin/openzeppelin-contracts/blob/master/contracts/access/Ownable.sol\":2006:2028  newOwner != address(0) */\n      0xffffffffffffffffffffffffffffffffffffffff\n      and\n        /* \"https://github.com/OpenZeppelin/openzeppelin-contracts/blob/master/contracts/access/Ownable.sol\":2006:2014  newOwner */\n      dup2\n        /* \"https://github.com/OpenZeppelin/openzeppelin-contracts/blob/master/contracts/access/Ownable.sol\":2006:2028  newOwner != address(0) */\n      0xffffffffffffffffffffffffffffffffffffffff\n      and\n      eq\n      iszero\n        /* \"https://github.com/OpenZeppelin/openzeppelin-contracts/blob/master/contracts/access/Ownable.sol\":1998:2071  require(newOwner != address(0), \"Ownable: new owner is the zero address\") */\n      tag_44\n      jumpi\n      mload(0x40)\n      0x08c379a000000000000000000000000000000000000000000000000000000000\n      dup2\n      mstore\n      0x04\n      add\n      tag_45\n      swap1\n      tag_46\n      jump\t// in\n    tag_45:\n      mload(0x40)\n      dup1\n      swap2\n      sub\n      swap1\n      revert\n    tag_44:\n        /* \"https://github.com/OpenZeppelin/openzeppelin-contracts/blob/master/contracts/access/Ownable.sol\":2081:2109  _transferOwnership(newOwner) */\n      tag_47\n        /* \"https://github.com/OpenZeppelin/openzeppelin-contracts/blob/master/contracts/access/Ownable.sol\":2100:2108  newOwner */\n      dup2\n        /* \"https://github.com/OpenZeppelin/openzeppelin-contracts/blob/master/contracts/access/Ownable.sol\":2081:2099  _transferOwnership */\n      tag_36\n        /* \"https://github.com/OpenZeppelin/openzeppelin-contracts/blob/master/contracts/access/Ownable.sol\":2081:2109  _transferOwnership(newOwner) */\n      jump\t// in\n    tag_47:\n        /* \"https://github.com/OpenZeppelin/openzeppelin-contracts/blob/master/contracts/access/Ownable.sol\":1918:2116  function transferOwnership(address newOwner) public virtual onlyOwner {... */\n      pop\n      jump\t// out\n        /* \"artifacts/lab-2/SharedWalletOptimized.sol\":593:777  function addAllowance(address _who, uint _amount) public onlyOwner {... */\n    tag_26:\n        /* \"https://github.com/OpenZeppelin/openzeppelin-contracts/blob/master/contracts/access/Ownable.sol\":1259:1271  _msgSender() */\n      tag_49\n        /* \"https://github.com/OpenZeppelin/openzeppelin-contracts/blob/master/contracts/access/Ownable.sol\":1259:1269  _msgSender */\n      tag_29\n        /* \"https://github.com/OpenZeppelin/openzeppelin-contracts/blob/master/contracts/access/Ownable.sol\":1259:1271  _msgSender() */\n      jump\t// in\n    tag_49:\n        /* \"https://github.com/OpenZeppelin/openzeppelin-contracts/blob/master/contracts/access/Ownable.sol\":1248:1271  owner() == _msgSender() */\n      0xffffffffffffffffffffffffffffffffffffffff\n      and\n        /* \"https://github.com/OpenZeppelin/openzeppelin-contracts/blob/master/contracts/access/Ownable.sol\":1248:1255  owner() */\n      tag_50\n        /* \"https://github.com/OpenZeppelin/openzeppelin-contracts/blob/master/contracts/access/Ownable.sol\":1248:1253  owner */\n      tag_17\n        /* \"https://github.com/OpenZeppelin/openzeppelin-contracts/blob/master/contracts/access/Ownable.sol\":1248:1255  owner() */\n      jump\t// in\n    tag_50:\n        /* \"https://github.com/OpenZeppelin/openzeppelin-contracts/blob/master/contracts/access/Ownable.sol\":1248:1271  owner() == _msgSender() */\n      0xffffffffffffffffffffffffffffffffffffffff\n      and\n      eq\n        /* \"https://github.com/OpenZeppelin/openzeppelin-contracts/blob/master/contracts/access/Ownable.sol\":1240:1308  require(owner() == _msgSender(), \"Ownable: caller is not the owner\") */\n      tag_51\n      jumpi\n      mload(0x40)\n      0x08c379a000000000000000000000000000000000000000000000000000000000\n      dup2\n      mstore\n      0x04\n      add\n      tag_52\n      swap1\n      tag_33\n      jump\t// in\n    tag_52:\n      mload(0x40)\n      dup1\n      swap2\n      sub\n      swap1\n      revert\n    tag_51:\n        /* \"artifacts/lab-2/SharedWalletOptimized.sol\":698:708  msg.sender */\n      caller\n        /* \"artifacts/lab-2/SharedWalletOptimized.sol\":675:735  AllowanceChanged(_who, msg.sender, allowance[_who], _amount) */\n      0xffffffffffffffffffffffffffffffffffffffff\n      and\n        /* \"artifacts/lab-2/SharedWalletOptimized.sol\":692:696  _who */\n      dup3\n        /* \"artifacts/lab-2/SharedWalletOptimized.sol\":675:735  AllowanceChanged(_who, msg.sender, allowance[_who], _amount) */\n      0xffffffffffffffffffffffffffffffffffffffff\n      and\n      0x3691d1a86d99355e52b689ca70a7bdf6d80763237a6aa06e5fa43964eac7244b\n        /* \"artifacts/lab-2/SharedWalletOptimized.sol\":710:719  allowance */\n      0x01\n        /* \"artifacts/lab-2/SharedWalletOptimized.sol\":710:725  allowance[_who] */\n      0x00\n        /* \"artifacts/lab-2/SharedWalletOptimized.sol\":720:724  _who */\n      dup7\n        /* \"artifacts/lab-2/SharedWalletOptimized.sol\":710:725  allowance[_who] */\n      0xffffffffffffffffffffffffffffffffffffffff\n      and\n      0xffffffffffffffffffffffffffffffffffffffff\n      and\n      dup2\n      mstore\n      0x20\n      add\n      swap1\n      dup2\n      mstore\n      0x20\n      add\n      0x00\n      keccak256\n      sload\n        /* \"artifacts/lab-2/SharedWalletOptimized.sol\":727:734  _amount */\n      dup5\n        /* \"artifacts/lab-2/SharedWalletOptimized.sol\":675:735  AllowanceChanged(_who, msg.sender, allowance[_who], _amount) */\n      mload(0x40)\n      tag_54\n      swap3\n      swap2\n      swap1\n      tag_55\n      jump\t// in\n    tag_54:\n      mload(0x40)\n      dup1\n      swap2\n      sub\n      swap1\n      log3\n        /* \"artifacts/lab-2/SharedWalletOptimized.sol\":763:770  _amount */\n      dup1\n        /* \"artifacts/lab-2/SharedWalletOptimized.sol\":745:754  allowance */\n      0x01\n        /* \"artifacts/lab-2/SharedWalletOptimized.sol\":745:760  allowance[_who] */\n      0x00\n        /* \"artifacts/lab-2/SharedWalletOptimized.sol\":755:759  _who */\n      dup5\n        /* \"artifacts/lab-2/SharedWalletOptimized.sol\":745:760  allowance[_who] */\n      0xffffffffffffffffffffffffffffffffffffffff\n      and\n      0xffffffffffffffffffffffffffffffffffffffff\n      and\n      dup2\n      mstore\n      0x20\n      add\n      swap1\n      dup2\n      mstore\n      0x20\n      add\n      0x00\n      keccak256\n        /* \"artifacts/lab-2/SharedWalletOptimized.sol\":745:770  allowance[_who] = _amount */\n      dup2\n      swap1\n      sstore\n      pop\n        /* \"artifacts/lab-2/SharedWalletOptimized.sol\":593:777  function addAllowance(address _who, uint _amount) public onlyOwner {... */\n      pop\n      pop\n      jump\t// out\n        /* \"https://github.com/OpenZeppelin/openzeppelin-contracts/blob/master/contracts/utils/Context.sol\":640:736  function _msgSender() internal view virtual returns (address) {... */\n    tag_29:\n        /* \"https://github.com/OpenZeppelin/openzeppelin-contracts/blob/master/contracts/utils/Context.sol\":693:700  address */\n      0x00\n        /* \"https://github.com/OpenZeppelin/openzeppelin-contracts/blob/master/contracts/utils/Context.sol\":719:729  msg.sender */\n      caller\n        /* \"https://github.com/OpenZeppelin/openzeppelin-contracts/blob/master/contracts/utils/Context.sol\":712:729  return msg.sender */\n      swap1\n      pop\n        /* \"https://github.com/OpenZeppelin/openzeppelin-contracts/blob/master/contracts/utils/Context.sol\":640:736  function _msgSender() internal view virtual returns (address) {... */\n      swap1\n      jump\t// out\n        /* \"https://github.com/OpenZeppelin/openzeppelin-contracts/blob/master/contracts/access/Ownable.sol\":2270:2457  function _transferOwnership(address newOwner) internal virtual {... */\n    tag_36:\n        /* \"https://github.com/OpenZeppelin/openzeppelin-contracts/blob/master/contracts/access/Ownable.sol\":2343:2359  address oldOwner */\n      0x00\n        /* \"https://github.com/OpenZeppelin/openzeppelin-contracts/blob/master/contracts/access/Ownable.sol\":2362:2368  _owner */\n      dup1\n      0x00\n      swap1\n      sload\n      swap1\n      0x0100\n      exp\n      swap1\n      div\n      0xffffffffffffffffffffffffffffffffffffffff\n      and\n        /* \"https://github.com/OpenZeppelin/openzeppelin-contracts/blob/master/contracts/access/Ownable.sol\":2343:2368  address oldOwner = _owner */\n      swap1\n      pop\n        /* \"https://github.com/OpenZeppelin/openzeppelin-contracts/blob/master/contracts/access/Ownable.sol\":2387:2395  newOwner */\n      dup2\n        /* \"https://github.com/OpenZeppelin/openzeppelin-contracts/blob/master/contracts/access/Ownable.sol\":2378:2384  _owner */\n      0x00\n      dup1\n        /* \"https://github.com/OpenZeppelin/openzeppelin-contracts/blob/master/contracts/access/Ownable.sol\":2378:2395  _owner = newOwner */\n      0x0100\n      exp\n      dup2\n      sload\n      dup2\n      0xffffffffffffffffffffffffffffffffffffffff\n      mul\n      not\n      and\n      swap1\n      dup4\n      0xffffffffffffffffffffffffffffffffffffffff\n      and\n      mul\n      or\n      swap1\n      sstore\n      pop\n        /* \"https://github.com/OpenZeppelin/openzeppelin-contracts/blob/master/contracts/access/Ownable.sol\":2441:2449  newOwner */\n      dup2\n        /* \"https://github.com/OpenZeppelin/openzeppelin-contracts/blob/master/contracts/access/Ownable.sol\":2410:2450  OwnershipTransferred(oldOwner, newOwner) */\n      0xffffffffffffffffffffffffffffffffffffffff\n      and\n        /* \"https://github.com/OpenZeppelin/openzeppelin-contracts/blob/master/contracts/access/Ownable.sol\":2431:2439  oldOwner */\n      dup2\n        /* \"https://github.com/OpenZeppelin/openzeppelin-contracts/blob/master/contracts/access/Ownable.sol\":2410:2450  OwnershipTransferred(oldOwner, newOwner) */\n      0xffffffffffffffffffffffffffffffffffffffff\n      and\n      0x8be0079c531659141344cd1fd0a4f28419497f9722a3daafe3b4186f6b6457e0\n      mload(0x40)\n      mload(0x40)\n      dup1\n      swap2\n      sub\n      swap1\n      log3\n        /* \"https://github.com/OpenZeppelin/openzeppelin-contracts/blob/master/contracts/access/Ownable.sol\":2333:2457  {... */\n      pop\n        /* \"https://github.com/OpenZeppelin/openzeppelin-contracts/blob/master/contracts/access/Ownable.sol\":2270:2457  function _transferOwnership(address newOwner) internal virtual {... */\n      pop\n      jump\t// out\n        /* \"#utility.yul\":7:146   */\n    tag_59:\n        /* \"#utility.yul\":53:58   */\n      0x00\n        /* \"#utility.yul\":91:97   */\n      dup2\n        /* \"#utility.yul\":78:98   */\n      calldataload\n        /* \"#utility.yul\":69:98   */\n      swap1\n      pop\n        /* \"#utility.yul\":107:140   */\n      tag_61\n        /* \"#utility.yul\":134:139   */\n      dup2\n        /* \"#utility.yul\":107:140   */\n      tag_62\n      jump\t// in\n    tag_61:\n        /* \"#utility.yul\":7:146   */\n      swap3\n      swap2\n      pop\n      pop\n      jump\t// out\n        /* \"#utility.yul\":152:291   */\n    tag_63:\n        /* \"#utility.yul\":198:203   */\n      0x00\n        /* \"#utility.yul\":236:242   */\n      dup2\n        /* \"#utility.yul\":223:243   */\n      calldataload\n        /* \"#utility.yul\":214:243   */\n      swap1\n      pop\n        /* \"#utility.yul\":252:285   */\n      tag_65\n        /* \"#utility.yul\":279:284   */\n      dup2\n        /* \"#utility.yul\":252:285   */\n      tag_66\n      jump\t// in\n    tag_65:\n        /* \"#utility.yul\":152:291   */\n      swap3\n      swap2\n      pop\n      pop\n      jump\t// out\n        /* \"#utility.yul\":297:626   */\n    tag_10:\n        /* \"#utility.yul\":356:362   */\n      0x00\n        /* \"#utility.yul\":405:407   */\n      0x20\n        /* \"#utility.yul\":393:402   */\n      dup3\n        /* \"#utility.yul\":384:391   */\n      dup5\n        /* \"#utility.yul\":380:403   */\n      sub\n        /* \"#utility.yul\":376:408   */\n      slt\n        /* \"#utility.yul\":373:492   */\n      iszero\n      tag_68\n      jumpi\n        /* \"#utility.yul\":411:490   */\n      tag_69\n      tag_70\n      jump\t// in\n    tag_69:\n        /* \"#utility.yul\":373:492   */\n    tag_68:\n        /* \"#utility.yul\":531:532   */\n      0x00\n        /* \"#utility.yul\":556:609   */\n      tag_71\n        /* \"#utility.yul\":601:608   */\n      dup5\n        /* \"#utility.yul\":592:598   */\n      dup3\n        /* \"#utility.yul\":581:590   */\n      dup6\n        /* \"#utility.yul\":577:599   */\n      add\n        /* \"#utility.yul\":556:609   */\n      tag_59\n      jump\t// in\n    tag_71:\n        /* \"#utility.yul\":546:609   */\n      swap2\n      pop\n        /* \"#utility.yul\":502:619   */\n      pop\n        /* \"#utility.yul\":297:626   */\n      swap3\n      swap2\n      pop\n      pop\n      jump\t// out\n        /* \"#utility.yul\":632:1106   */\n    tag_25:\n        /* \"#utility.yul\":700:706   */\n      0x00\n        /* \"#utility.yul\":708:714   */\n      dup1\n        /* \"#utility.yul\":757:759   */\n      0x40\n        /* \"#utility.yul\":745:754   */\n      dup4\n        /* \"#utility.yul\":736:743   */\n      dup6\n        /* \"#utility.yul\":732:755   */\n      sub\n        /* \"#utility.yul\":728:760   */\n      slt\n        /* \"#utility.yul\":725:844   */\n      iszero\n      tag_73\n      jumpi\n        /* \"#utility.yul\":763:842   */\n      tag_74\n      tag_70\n      jump\t// in\n    tag_74:\n        /* \"#utility.yul\":725:844   */\n    tag_73:\n        /* \"#utility.yul\":883:884   */\n      0x00\n        /* \"#utility.yul\":908:961   */\n      tag_75\n        /* \"#utility.yul\":953:960   */\n      dup6\n        /* \"#utility.yul\":944:950   */\n      dup3\n        /* \"#utility.yul\":933:942   */\n      dup7\n        /* \"#utility.yul\":929:951   */\n      add\n        /* \"#utility.yul\":908:961   */\n      tag_59\n      jump\t// in\n    tag_75:\n        /* \"#utility.yul\":898:961   */\n      swap3\n      pop\n        /* \"#utility.yul\":854:971   */\n      pop\n        /* \"#utility.yul\":1010:1012   */\n      0x20\n        /* \"#utility.yul\":1036:1089   */\n      tag_76\n        /* \"#utility.yul\":1081:1088   */\n      dup6\n        /* \"#utility.yul\":1072:1078   */\n      dup3\n        /* \"#utility.yul\":1061:1070   */\n      dup7\n        /* \"#utility.yul\":1057:1079   */\n      add\n        /* \"#utility.yul\":1036:1089   */\n      tag_63\n      jump\t// in\n    tag_76:\n        /* \"#utility.yul\":1026:1089   */\n      swap2\n      pop\n        /* \"#utility.yul\":981:1099   */\n      pop\n        /* \"#utility.yul\":632:1106   */\n      swap3\n      pop\n      swap3\n      swap1\n      pop\n      jump\t// out\n        /* \"#utility.yul\":1112:1230   */\n    tag_77:\n        /* \"#utility.yul\":1199:1223   */\n      tag_79\n        /* \"#utility.yul\":1217:1222   */\n      dup2\n        /* \"#utility.yul\":1199:1223   */\n      tag_80\n      jump\t// in\n    tag_79:\n        /* \"#utility.yul\":1194:1197   */\n      dup3\n        /* \"#utility.yul\":1187:1224   */\n      mstore\n        /* \"#utility.yul\":1112:1230   */\n      pop\n      pop\n      jump\t// out\n        /* \"#utility.yul\":1236:1602   */\n    tag_81:\n        /* \"#utility.yul\":1378:1381   */\n      0x00\n        /* \"#utility.yul\":1399:1466   */\n      tag_83\n        /* \"#utility.yul\":1463:1465   */\n      0x26\n        /* \"#utility.yul\":1458:1461   */\n      dup4\n        /* \"#utility.yul\":1399:1466   */\n      tag_84\n      jump\t// in\n    tag_83:\n        /* \"#utility.yul\":1392:1466   */\n      swap2\n      pop\n        /* \"#utility.yul\":1475:1568   */\n      tag_85\n        /* \"#utility.yul\":1564:1567   */\n      dup3\n        /* \"#utility.yul\":1475:1568   */\n      tag_86\n      jump\t// in\n    tag_85:\n        /* \"#utility.yul\":1593:1595   */\n      0x40\n        /* \"#utility.yul\":1588:1591   */\n      dup3\n        /* \"#utility.yul\":1584:1596   */\n      add\n        /* \"#utility.yul\":1577:1596   */\n      swap1\n      pop\n        /* \"#utility.yul\":1236:1602   */\n      swap2\n      swap1\n      pop\n      jump\t// out\n        /* \"#utility.yul\":1608:1974   */\n    tag_87:\n        /* \"#utility.yul\":1750:1753   */\n      0x00\n        /* \"#utility.yul\":1771:1838   */\n      tag_89\n        /* \"#utility.yul\":1835:1837   */\n      0x20\n        /* \"#utility.yul\":1830:1833   */\n      dup4\n        /* \"#utility.yul\":1771:1838   */\n      tag_84\n      jump\t// in\n    tag_89:\n        /* \"#utility.yul\":1764:1838   */\n      swap2\n      pop\n        /* \"#utility.yul\":1847:1940   */\n      tag_90\n        /* \"#utility.yul\":1936:1939   */\n      dup3\n        /* \"#utility.yul\":1847:1940   */\n      tag_91\n      jump\t// in\n    tag_90:\n        /* \"#utility.yul\":1965:1967   */\n      0x20\n        /* \"#utility.yul\":1960:1963   */\n      dup3\n        /* \"#utility.yul\":1956:1968   */\n      add\n        /* \"#utility.yul\":1949:1968   */\n      swap1\n      pop\n        /* \"#utility.yul\":1608:1974   */\n      swap2\n      swap1\n      pop\n      jump\t// out\n        /* \"#utility.yul\":1980:2098   */\n    tag_92:\n        /* \"#utility.yul\":2067:2091   */\n      tag_94\n        /* \"#utility.yul\":2085:2090   */\n      dup2\n        /* \"#utility.yul\":2067:2091   */\n      tag_95\n      jump\t// in\n    tag_94:\n        /* \"#utility.yul\":2062:2065   */\n      dup3\n        /* \"#utility.yul\":2055:2092   */\n      mstore\n        /* \"#utility.yul\":1980:2098   */\n      pop\n      pop\n      jump\t// out\n        /* \"#utility.yul\":2104:2326   */\n    tag_19:\n        /* \"#utility.yul\":2197:2201   */\n      0x00\n        /* \"#utility.yul\":2235:2237   */\n      0x20\n        /* \"#utility.yul\":2224:2233   */\n      dup3\n        /* \"#utility.yul\":2220:2238   */\n      add\n        /* \"#utility.yul\":2212:2238   */\n      swap1\n      pop\n        /* \"#utility.yul\":2248:2319   */\n      tag_97\n        /* \"#utility.yul\":2316:2317   */\n      0x00\n        /* \"#utility.yul\":2305:2314   */\n      dup4\n        /* \"#utility.yul\":2301:2318   */\n      add\n        /* \"#utility.yul\":2292:2298   */\n      dup5\n        /* \"#utility.yul\":2248:2319   */\n      tag_77\n      jump\t// in\n    tag_97:\n        /* \"#utility.yul\":2104:2326   */\n      swap3\n      swap2\n      pop\n      pop\n      jump\t// out\n        /* \"#utility.yul\":2332:2751   */\n    tag_46:\n        /* \"#utility.yul\":2498:2502   */\n      0x00\n        /* \"#utility.yul\":2536:2538   */\n      0x20\n        /* \"#utility.yul\":2525:2534   */\n      dup3\n        /* \"#utility.yul\":2521:2539   */\n      add\n        /* \"#utility.yul\":2513:2539   */\n      swap1\n      pop\n        /* \"#utility.yul\":2585:2594   */\n      dup2\n        /* \"#utility.yul\":2579:2583   */\n      dup2\n        /* \"#utility.yul\":2575:2595   */\n      sub\n        /* \"#utility.yul\":2571:2572   */\n      0x00\n        /* \"#utility.yul\":2560:2569   */\n      dup4\n        /* \"#utility.yul\":2556:2573   */\n      add\n        /* \"#utility.yul\":2549:2596   */\n      mstore\n        /* \"#utility.yul\":2613:2744   */\n      tag_99\n        /* \"#utility.yul\":2739:2743   */\n      dup2\n        /* \"#utility.yul\":2613:2744   */\n      tag_81\n      jump\t// in\n    tag_99:\n        /* \"#utility.yul\":2605:2744   */\n      swap1\n      pop\n        /* \"#utility.yul\":2332:2751   */\n      swap2\n      swap1\n      pop\n      jump\t// out\n        /* \"#utility.yul\":2757:3176   */\n    tag_33:\n        /* \"#utility.yul\":2923:2927   */\n      0x00\n        /* \"#utility.yul\":2961:2963   */\n      0x20\n        /* \"#utility.yul\":2950:2959   */\n      dup3\n        /* \"#utility.yul\":2946:2964   */\n      add\n        /* \"#utility.yul\":2938:2964   */\n      swap1\n      pop\n        /* \"#utility.yul\":3010:3019   */\n      dup2\n        /* \"#utility.yul\":3004:3008   */\n      dup2\n        /* \"#utility.yul\":3000:3020   */\n      sub\n        /* \"#utility.yul\":2996:2997   */\n      0x00\n        /* \"#utility.yul\":2985:2994   */\n      dup4\n        /* \"#utility.yul\":2981:2998   */\n      add\n        /* \"#utility.yul\":2974:3021   */\n      mstore\n        /* \"#utility.yul\":3038:3169   */\n      tag_101\n        /* \"#utility.yul\":3164:3168   */\n      dup2\n        /* \"#utility.yul\":3038:3169   */\n      tag_87\n      jump\t// in\n    tag_101:\n        /* \"#utility.yul\":3030:3169   */\n      swap1\n      pop\n        /* \"#utility.yul\":2757:3176   */\n      swap2\n      swap1\n      pop\n      jump\t// out\n        /* \"#utility.yul\":3182:3404   */\n    tag_13:\n        /* \"#utility.yul\":3275:3279   */\n      0x00\n        /* \"#utility.yul\":3313:3315   */\n      0x20\n        /* \"#utility.yul\":3302:3311   */\n      dup3\n        /* \"#utility.yul\":3298:3316   */\n      add\n        /* \"#utility.yul\":3290:3316   */\n      swap1\n      pop\n        /* \"#utility.yul\":3326:3397   */\n      tag_103\n        /* \"#utility.yul\":3394:3395   */\n      0x00\n        /* \"#utility.yul\":3383:3392   */\n      dup4\n        /* \"#utility.yul\":3379:3396   */\n      add\n        /* \"#utility.yul\":3370:3376   */\n      dup5\n        /* \"#utility.yul\":3326:3397   */\n      tag_92\n      jump\t// in\n    tag_103:\n        /* \"#utility.yul\":3182:3404   */\n      swap3\n      swap2\n      pop\n      pop\n      jump\t// out\n        /* \"#utility.yul\":3410:3742   */\n    tag_55:\n        /* \"#utility.yul\":3531:3535   */\n      0x00\n        /* \"#utility.yul\":3569:3571   */\n      0x40\n        /* \"#utility.yul\":3558:3567   */\n      dup3\n        /* \"#utility.yul\":3554:3572   */\n      add\n        /* \"#utility.yul\":3546:3572   */\n      swap1\n      pop\n        /* \"#utility.yul\":3582:3653   */\n      tag_105\n        /* \"#utility.yul\":3650:3651   */\n      0x00\n        /* \"#utility.yul\":3639:3648   */\n      dup4\n        /* \"#utility.yul\":3635:3652   */\n      add\n        /* \"#utility.yul\":3626:3632   */\n      dup6\n        /* \"#utility.yul\":3582:3653   */\n      tag_92\n      jump\t// in\n    tag_105:\n        /* \"#utility.yul\":3663:3735   */\n      tag_106\n        /* \"#utility.yul\":3731:3733   */\n      0x20\n        /* \"#utility.yul\":3720:3729   */\n      dup4\n        /* \"#utility.yul\":3716:3734   */\n      add\n        /* \"#utility.yul\":3707:3713   */\n      dup5\n        /* \"#utility.yul\":3663:3735   */\n      tag_92\n      jump\t// in\n    tag_106:\n        /* \"#utility.yul\":3410:3742   */\n      swap4\n      swap3\n      pop\n      pop\n      pop\n      jump\t// out\n        /* \"#utility.yul\":3829:3998   */\n    tag_84:\n        /* \"#utility.yul\":3913:3924   */\n      0x00\n        /* \"#utility.yul\":3947:3953   */\n      dup3\n        /* \"#utility.yul\":3942:3945   */\n      dup3\n        /* \"#utility.yul\":3935:3954   */\n      mstore\n        /* \"#utility.yul\":3987:3991   */\n      0x20\n        /* \"#utility.yul\":3982:3985   */\n      dup3\n        /* \"#utility.yul\":3978:3992   */\n      add\n        /* \"#utility.yul\":3963:3992   */\n      swap1\n      pop\n        /* \"#utility.yul\":3829:3998   */\n      swap3\n      swap2\n      pop\n      pop\n      jump\t// out\n        /* \"#utility.yul\":4004:4100   */\n    tag_80:\n        /* \"#utility.yul\":4041:4048   */\n      0x00\n        /* \"#utility.yul\":4070:4094   */\n      tag_111\n        /* \"#utility.yul\":4088:4093   */\n      dup3\n        /* \"#utility.yul\":4070:4094   */\n      tag_112\n      jump\t// in\n    tag_111:\n        /* \"#utility.yul\":4059:4094   */\n      swap1\n      pop\n        /* \"#utility.yul\":4004:4100   */\n      swap2\n      swap1\n      pop\n      jump\t// out\n        /* \"#utility.yul\":4106:4232   */\n    tag_112:\n        /* \"#utility.yul\":4143:4150   */\n      0x00\n        /* \"#utility.yul\":4183:4225   */\n      0xffffffffffffffffffffffffffffffffffffffff\n        /* \"#utility.yul\":4176:4181   */\n      dup3\n        /* \"#utility.yul\":4172:4226   */\n      and\n        /* \"#utility.yul\":4161:4226   */\n      swap1\n      pop\n        /* \"#utility.yul\":4106:4232   */\n      swap2\n      swap1\n      pop\n      jump\t// out\n        /* \"#utility.yul\":4238:4315   */\n    tag_95:\n        /* \"#utility.yul\":4275:4282   */\n      0x00\n        /* \"#utility.yul\":4304:4309   */\n      dup2\n        /* \"#utility.yul\":4293:4309   */\n      swap1\n      pop\n        /* \"#utility.yul\":4238:4315   */\n      swap2\n      swap1\n      pop\n      jump\t// out\n        /* \"#utility.yul\":4444:4561   */\n    tag_70:\n        /* \"#utility.yul\":4553:4554   */\n      0x00\n        /* \"#utility.yul\":4550:4551   */\n      dup1\n        /* \"#utility.yul\":4543:4555   */\n      revert\n        /* \"#utility.yul\":4567:4792   */\n    tag_86:\n        /* \"#utility.yul\":4707:4741   */\n      0x4f776e61626c653a206e6577206f776e657220697320746865207a65726f2061\n        /* \"#utility.yul\":4703:4704   */\n      0x00\n        /* \"#utility.yul\":4695:4701   */\n      dup3\n        /* \"#utility.yul\":4691:4705   */\n      add\n        /* \"#utility.yul\":4684:4742   */\n      mstore\n        /* \"#utility.yul\":4776:4784   */\n      0x6464726573730000000000000000000000000000000000000000000000000000\n        /* \"#utility.yul\":4771:4773   */\n      0x20\n        /* \"#utility.yul\":4763:4769   */\n      dup3\n        /* \"#utility.yul\":4759:4774   */\n      add\n        /* \"#utility.yul\":4752:4785   */\n      mstore\n        /* \"#utility.yul\":4567:4792   */\n      pop\n      jump\t// out\n        /* \"#utility.yul\":4798:4980   */\n    tag_91:\n        /* \"#utility.yul\":4938:4972   */\n      0x4f776e61626c653a2063616c6c6572206973206e6f7420746865206f776e6572\n        /* \"#utility.yul\":4934:4935   */\n      0x00\n        /* \"#utility.yul\":4926:4932   */\n      dup3\n        /* \"#utility.yul\":4922:4936   */\n      add\n        /* \"#utility.yul\":4915:4973   */\n      mstore\n        /* \"#utility.yul\":4798:4980   */\n      pop\n      jump\t// out\n        /* \"#utility.yul\":4986:5108   */\n    tag_62:\n        /* \"#utility.yul\":5059:5083   */\n      tag_121\n        /* \"#utility.yul\":5077:5082   */\n      dup2\n        /* \"#utility.yul\":5059:5083   */\n      tag_80\n      jump\t// in\n    tag_121:\n        /* \"#utility.yul\":5052:5057   */\n      dup2\n        /* \"#utility.yul\":5049:5084   */\n      eq\n        /* \"#utility.yul\":5039:5102   */\n      tag_122\n      jumpi\n        /* \"#utility.yul\":5098:5099   */\n      0x00\n        /* \"#utility.yul\":5095:5096   */\n      dup1\n        /* \"#utility.yul\":5088:5100   */\n      revert\n        /* \"#utility.yul\":5039:5102   */\n    tag_122:\n        /* \"#utility.yul\":4986:5108   */\n      pop\n      jump\t// out\n        /* \"#utility.yul\":5114:5236   */\n    tag_66:\n        /* \"#utility.yul\":5187:5211   */\n      tag_124\n        /* \"#utility.yul\":5205:5210   */\n      dup2\n        /* \"#utility.yul\":5187:5211   */\n      tag_95\n      jump\t// in\n    tag_124:\n        /* \"#utility.yul\":5180:5185   */\n      dup2\n        /* \"#utility.yul\":5177:5212   */\n      eq\n        /* \"#utility.yul\":5167:5230   */\n      tag_125\n      jumpi\n        /* \"#utility.yul\":5226:5227   */\n      0x00\n        /* \"#utility.yul\":5223:5224   */\n      dup1\n        /* \"#utility.yul\":5216:5228   */\n      revert\n        /* \"#utility.yul\":5167:5230   */\n    tag_125:\n        /* \"#utility.yul\":5114:5236   */\n      pop\n      jump\t// out\n\n    auxdata: 0xa2646970667358221220afba5176e1ee07209ed83e6e8afd631c196eb06bd02351ce0cbf07073640474264736f6c63430008070033\n}\n",
				"bytecode": {
					"linkReferences": {},
					"object": "608060405234801561001057600080fd5b5061002d61002261003260201b60201c565b61003a60201b60201c565b6100fe565b600033905090565b60008060009054906101000a900473ffffffffffffffffffffffffffffffffffffffff169050816000806101000a81548173ffffffffffffffffffffffffffffffffffffffff021916908373ffffffffffffffffffffffffffffffffffffffff1602179055508173ffffffffffffffffffffffffffffffffffffffff168173ffffffffffffffffffffffffffffffffffffffff167f8be0079c531659141344cd1fd0a4f28419497f9722a3daafe3b4186f6b6457e060405160405180910390a35050565b6107ab8061010d6000396000f3fe608060405234801561001057600080fd5b50600436106100575760003560e01c80633e5beab91461005c578063715018a61461008c5780638da5cb5b14610096578063f2fde38b146100b4578063f3c40c4b146100d0575b600080fd5b6100766004803603810190610071919061050d565b6100ec565b6040516100839190610639565b60405180910390f35b610094610104565b005b61009e61018c565b6040516100ab91906105de565b60405180910390f35b6100ce60048036038101906100c9919061050d565b6101b5565b005b6100ea60048036038101906100e5919061053a565b6102ad565b005b60016020528060005260406000206000915090505481565b61010c610417565b73ffffffffffffffffffffffffffffffffffffffff1661012a61018c565b73ffffffffffffffffffffffffffffffffffffffff1614610180576040517f08c379a000000000000000000000000000000000000000000000000000000000815260040161017790610619565b60405180910390fd5b61018a600061041f565b565b60008060009054906101000a900473ffffffffffffffffffffffffffffffffffffffff16905090565b6101bd610417565b73ffffffffffffffffffffffffffffffffffffffff166101db61018c565b73ffffffffffffffffffffffffffffffffffffffff1614610231576040517f08c379a000000000000000000000000000000000000000000000000000000000815260040161022890610619565b60405180910390fd5b600073ffffffffffffffffffffffffffffffffffffffff168173ffffffffffffffffffffffffffffffffffffffff1614156102a1576040517f08c379a0000000000000000000000000000000000000000000000000000000008152600401610298906105f9565b60405180910390fd5b6102aa8161041f565b50565b6102b5610417565b73ffffffffffffffffffffffffffffffffffffffff166102d361018c565b73ffffffffffffffffffffffffffffffffffffffff1614610329576040517f08c379a000000000000000000000000000000000000000000000000000000000815260040161032090610619565b60405180910390fd5b3373ffffffffffffffffffffffffffffffffffffffff168273ffffffffffffffffffffffffffffffffffffffff167f3691d1a86d99355e52b689ca70a7bdf6d80763237a6aa06e5fa43964eac7244b600160008673ffffffffffffffffffffffffffffffffffffffff1673ffffffffffffffffffffffffffffffffffffffff16815260200190815260200160002054846040516103c7929190610654565b60405180910390a380600160008473ffffffffffffffffffffffffffffffffffffffff1673ffffffffffffffffffffffffffffffffffffffff168152602001908152602001600020819055505050565b600033905090565b60008060009054906101000a900473ffffffffffffffffffffffffffffffffffffffff169050816000806101000a81548173ffffffffffffffffffffffffffffffffffffffff021916908373ffffffffffffffffffffffffffffffffffffffff1602179055508173ffffffffffffffffffffffffffffffffffffffff168173ffffffffffffffffffffffffffffffffffffffff167f8be0079c531659141344cd1fd0a4f28419497f9722a3daafe3b4186f6b6457e060405160405180910390a35050565b6000813590506104f281610747565b92915050565b6000813590506105078161075e565b92915050565b600060208284031215610523576105226106ca565b5b6000610531848285016104e3565b91505092915050565b60008060408385031215610551576105506106ca565b5b600061055f858286016104e3565b9250506020610570858286016104f8565b9150509250929050565b6105838161068e565b82525050565b600061059660268361067d565b91506105a1826106cf565b604082019050919050565b60006105b960208361067d565b91506105c48261071e565b602082019050919050565b6105d8816106c0565b82525050565b60006020820190506105f3600083018461057a565b92915050565b6000602082019050818103600083015261061281610589565b9050919050565b60006020820190508181036000830152610632816105ac565b9050919050565b600060208201905061064e60008301846105cf565b92915050565b600060408201905061066960008301856105cf565b61067660208301846105cf565b9392505050565b600082825260208201905092915050565b6000610699826106a0565b9050919050565b600073ffffffffffffffffffffffffffffffffffffffff82169050919050565b6000819050919050565b600080fd5b7f4f776e61626c653a206e6577206f776e657220697320746865207a65726f206160008201527f6464726573730000000000000000000000000000000000000000000000000000602082015250565b7f4f776e61626c653a2063616c6c6572206973206e6f7420746865206f776e6572600082015250565b6107508161068e565b811461075b57600080fd5b50565b610767816106c0565b811461077257600080fd5b5056fea2646970667358221220afba5176e1ee07209ed83e6e8afd631c196eb06bd02351ce0cbf07073640474264736f6c63430008070033",
					"opcodes": "PUSH1 0x80 PUSH1 0x40 MSTORE CALLVALUE DUP1 ISZERO PUSH2 0x10 JUMPI PUSH1 0x0 DUP1 REVERT JUMPDEST POP PUSH2 0x2D PUSH2 0x22 PUSH2 0x32 PUSH1 0x20 SHL PUSH1 0x20 SHR JUMP JUMPDEST PUSH2 0x3A PUSH1 0x20 SHL PUSH1 0x20 SHR JUMP JUMPDEST PUSH2 0xFE JUMP JUMPDEST PUSH1 0x0 CALLER SWAP1 POP SWAP1 JUMP JUMPDEST PUSH1 0x0 DUP1 PUSH1 0x0 SWAP1 SLOAD SWAP1 PUSH2 0x100 EXP SWAP1 DIV PUSH20 0xFFFFFFFFFFFFFFFFFFFFFFFFFFFFFFFFFFFFFFFF AND SWAP1 POP DUP2 PUSH1 0x0 DUP1 PUSH2 0x100 EXP DUP2 SLOAD DUP2 PUSH20 0xFFFFFFFFFFFFFFFFFFFFFFFFFFFFFFFFFFFFFFFF MUL NOT AND SWAP1 DUP4 PUSH20 0xFFFFFFFFFFFFFFFFFFFFFFFFFFFFFFFFFFFFFFFF AND MUL OR SWAP1 SSTORE POP DUP2 PUSH20 0xFFFFFFFFFFFFFFFFFFFFFFFFFFFFFFFFFFFFFFFF AND DUP2 PUSH20 0xFFFFFFFFFFFFFFFFFFFFFFFFFFFFFFFFFFFFFFFF AND PUSH32 0x8BE0079C531659141344CD1FD0A4F28419497F9722A3DAAFE3B4186F6B6457E0 PUSH1 0x40 MLOAD PUSH1 0x40 MLOAD DUP1 SWAP2 SUB SWAP1 LOG3 POP POP JUMP JUMPDEST PUSH2 0x7AB DUP1 PUSH2 0x10D PUSH1 0x0 CODECOPY PUSH1 0x0 RETURN INVALID PUSH1 0x80 PUSH1 0x40 MSTORE CALLVALUE DUP1 ISZERO PUSH2 0x10 JUMPI PUSH1 0x0 DUP1 REVERT JUMPDEST POP PUSH1 0x4 CALLDATASIZE LT PUSH2 0x57 JUMPI PUSH1 0x0 CALLDATALOAD PUSH1 0xE0 SHR DUP1 PUSH4 0x3E5BEAB9 EQ PUSH2 0x5C JUMPI DUP1 PUSH4 0x715018A6 EQ PUSH2 0x8C JUMPI DUP1 PUSH4 0x8DA5CB5B EQ PUSH2 0x96 JUMPI DUP1 PUSH4 0xF2FDE38B EQ PUSH2 0xB4 JUMPI DUP1 PUSH4 0xF3C40C4B EQ PUSH2 0xD0 JUMPI JUMPDEST PUSH1 0x0 DUP1 REVERT JUMPDEST PUSH2 0x76 PUSH1 0x4 DUP1 CALLDATASIZE SUB DUP2 ADD SWAP1 PUSH2 0x71 SWAP2 SWAP1 PUSH2 0x50D JUMP JUMPDEST PUSH2 0xEC JUMP JUMPDEST PUSH1 0x40 MLOAD PUSH2 0x83 SWAP2 SWAP1 PUSH2 0x639 JUMP JUMPDEST PUSH1 0x40 MLOAD DUP1 SWAP2 SUB SWAP1 RETURN JUMPDEST PUSH2 0x94 PUSH2 0x104 JUMP JUMPDEST STOP JUMPDEST PUSH2 0x9E PUSH2 0x18C JUMP JUMPDEST PUSH1 0x40 MLOAD PUSH2 0xAB SWAP2 SWAP1 PUSH2 0x5DE JUMP JUMPDEST PUSH1 0x40 MLOAD DUP1 SWAP2 SUB SWAP1 RETURN JUMPDEST PUSH2 0xCE PUSH1 0x4 DUP1 CALLDATASIZE SUB DUP2 ADD SWAP1 PUSH2 0xC9 SWAP2 SWAP1 PUSH2 0x50D JUMP JUMPDEST PUSH2 0x1B5 JUMP JUMPDEST STOP JUMPDEST PUSH2 0xEA PUSH1 0x4 DUP1 CALLDATASIZE SUB DUP2 ADD SWAP1 PUSH2 0xE5 SWAP2 SWAP1 PUSH2 0x53A JUMP JUMPDEST PUSH2 0x2AD JUMP JUMPDEST STOP JUMPDEST PUSH1 0x1 PUSH1 0x20 MSTORE DUP1 PUSH1 0x0 MSTORE PUSH1 0x40 PUSH1 0x0 KECCAK256 PUSH1 0x0 SWAP2 POP SWAP1 POP SLOAD DUP2 JUMP JUMPDEST PUSH2 0x10C PUSH2 0x417 JUMP JUMPDEST PUSH20 0xFFFFFFFFFFFFFFFFFFFFFFFFFFFFFFFFFFFFFFFF AND PUSH2 0x12A PUSH2 0x18C JUMP JUMPDEST PUSH20 0xFFFFFFFFFFFFFFFFFFFFFFFFFFFFFFFFFFFFFFFF AND EQ PUSH2 0x180 JUMPI PUSH1 0x40 MLOAD PUSH32 0x8C379A000000000000000000000000000000000000000000000000000000000 DUP2 MSTORE PUSH1 0x4 ADD PUSH2 0x177 SWAP1 PUSH2 0x619 JUMP JUMPDEST PUSH1 0x40 MLOAD DUP1 SWAP2 SUB SWAP1 REVERT JUMPDEST PUSH2 0x18A PUSH1 0x0 PUSH2 0x41F JUMP JUMPDEST JUMP JUMPDEST PUSH1 0x0 DUP1 PUSH1 0x0 SWAP1 SLOAD SWAP1 PUSH2 0x100 EXP SWAP1 DIV PUSH20 0xFFFFFFFFFFFFFFFFFFFFFFFFFFFFFFFFFFFFFFFF AND SWAP1 POP SWAP1 JUMP JUMPDEST PUSH2 0x1BD PUSH2 0x417 JUMP JUMPDEST PUSH20 0xFFFFFFFFFFFFFFFFFFFFFFFFFFFFFFFFFFFFFFFF AND PUSH2 0x1DB PUSH2 0x18C JUMP JUMPDEST PUSH20 0xFFFFFFFFFFFFFFFFFFFFFFFFFFFFFFFFFFFFFFFF AND EQ PUSH2 0x231 JUMPI PUSH1 0x40 MLOAD PUSH32 0x8C379A000000000000000000000000000000000000000000000000000000000 DUP2 MSTORE PUSH1 0x4 ADD PUSH2 0x228 SWAP1 PUSH2 0x619 JUMP JUMPDEST PUSH1 0x40 MLOAD DUP1 SWAP2 SUB SWAP1 REVERT JUMPDEST PUSH1 0x0 PUSH20 0xFFFFFFFFFFFFFFFFFFFFFFFFFFFFFFFFFFFFFFFF AND DUP2 PUSH20 0xFFFFFFFFFFFFFFFFFFFFFFFFFFFFFFFFFFFFFFFF AND EQ ISZERO PUSH2 0x2A1 JUMPI PUSH1 0x40 MLOAD PUSH32 0x8C379A000000000000000000000000000000000000000000000000000000000 DUP2 MSTORE PUSH1 0x4 ADD PUSH2 0x298 SWAP1 PUSH2 0x5F9 JUMP JUMPDEST PUSH1 0x40 MLOAD DUP1 SWAP2 SUB SWAP1 REVERT JUMPDEST PUSH2 0x2AA DUP2 PUSH2 0x41F JUMP JUMPDEST POP JUMP JUMPDEST PUSH2 0x2B5 PUSH2 0x417 JUMP JUMPDEST PUSH20 0xFFFFFFFFFFFFFFFFFFFFFFFFFFFFFFFFFFFFFFFF AND PUSH2 0x2D3 PUSH2 0x18C JUMP JUMPDEST PUSH20 0xFFFFFFFFFFFFFFFFFFFFFFFFFFFFFFFFFFFFFFFF AND EQ PUSH2 0x329 JUMPI PUSH1 0x40 MLOAD PUSH32 0x8C379A000000000000000000000000000000000000000000000000000000000 DUP2 MSTORE PUSH1 0x4 ADD PUSH2 0x320 SWAP1 PUSH2 0x619 JUMP JUMPDEST PUSH1 0x40 MLOAD DUP1 SWAP2 SUB SWAP1 REVERT JUMPDEST CALLER PUSH20 0xFFFFFFFFFFFFFFFFFFFFFFFFFFFFFFFFFFFFFFFF AND DUP3 PUSH20 0xFFFFFFFFFFFFFFFFFFFFFFFFFFFFFFFFFFFFFFFF AND PUSH32 0x3691D1A86D99355E52B689CA70A7BDF6D80763237A6AA06E5FA43964EAC7244B PUSH1 0x1 PUSH1 0x0 DUP7 PUSH20 0xFFFFFFFFFFFFFFFFFFFFFFFFFFFFFFFFFFFFFFFF AND PUSH20 0xFFFFFFFFFFFFFFFFFFFFFFFFFFFFFFFFFFFFFFFF AND DUP2 MSTORE PUSH1 0x20 ADD SWAP1 DUP2 MSTORE PUSH1 0x20 ADD PUSH1 0x0 KECCAK256 SLOAD DUP5 PUSH1 0x40 MLOAD PUSH2 0x3C7 SWAP3 SWAP2 SWAP1 PUSH2 0x654 JUMP JUMPDEST PUSH1 0x40 MLOAD DUP1 SWAP2 SUB SWAP1 LOG3 DUP1 PUSH1 0x1 PUSH1 0x0 DUP5 PUSH20 0xFFFFFFFFFFFFFFFFFFFFFFFFFFFFFFFFFFFFFFFF AND PUSH20 0xFFFFFFFFFFFFFFFFFFFFFFFFFFFFFFFFFFFFFFFF AND DUP2 MSTORE PUSH1 0x20 ADD SWAP1 DUP2 MSTORE PUSH1 0x20 ADD PUSH1 0x0 KECCAK256 DUP2 SWAP1 SSTORE POP POP POP JUMP JUMPDEST PUSH1 0x0 CALLER SWAP1 POP SWAP1 JUMP JUMPDEST PUSH1 0x0 DUP1 PUSH1 0x0 SWAP1 SLOAD SWAP1 PUSH2 0x100 EXP SWAP1 DIV PUSH20 0xFFFFFFFFFFFFFFFFFFFFFFFFFFFFFFFFFFFFFFFF AND SWAP1 POP DUP2 PUSH1 0x0 DUP1 PUSH2 0x100 EXP DUP2 SLOAD DUP2 PUSH20 0xFFFFFFFFFFFFFFFFFFFFFFFFFFFFFFFFFFFFFFFF MUL NOT AND SWAP1 DUP4 PUSH20 0xFFFFFFFFFFFFFFFFFFFFFFFFFFFFFFFFFFFFFFFF AND MUL OR SWAP1 SSTORE POP DUP2 PUSH20 0xFFFFFFFFFFFFFFFFFFFFFFFFFFFFFFFFFFFFFFFF AND DUP2 PUSH20 0xFFFFFFFFFFFFFFFFFFFFFFFFFFFFFFFFFFFFFFFF AND PUSH32 0x8BE0079C531659141344CD1FD0A4F28419497F9722A3DAAFE3B4186F6B6457E0 PUSH1 0x40 MLOAD PUSH1 0x40 MLOAD DUP1 SWAP2 SUB SWAP1 LOG3 POP POP JUMP JUMPDEST PUSH1 0x0 DUP2 CALLDATALOAD SWAP1 POP PUSH2 0x4F2 DUP2 PUSH2 0x747 JUMP JUMPDEST SWAP3 SWAP2 POP POP JUMP JUMPDEST PUSH1 0x0 DUP2 CALLDATALOAD SWAP1 POP PUSH2 0x507 DUP2 PUSH2 0x75E JUMP JUMPDEST SWAP3 SWAP2 POP POP JUMP JUMPDEST PUSH1 0x0 PUSH1 0x20 DUP3 DUP5 SUB SLT ISZERO PUSH2 0x523 JUMPI PUSH2 0x522 PUSH2 0x6CA JUMP JUMPDEST JUMPDEST PUSH1 0x0 PUSH2 0x531 DUP5 DUP3 DUP6 ADD PUSH2 0x4E3 JUMP JUMPDEST SWAP2 POP POP SWAP3 SWAP2 POP POP JUMP JUMPDEST PUSH1 0x0 DUP1 PUSH1 0x40 DUP4 DUP6 SUB SLT ISZERO PUSH2 0x551 JUMPI PUSH2 0x550 PUSH2 0x6CA JUMP JUMPDEST JUMPDEST PUSH1 0x0 PUSH2 0x55F DUP6 DUP3 DUP7 ADD PUSH2 0x4E3 JUMP JUMPDEST SWAP3 POP POP PUSH1 0x20 PUSH2 0x570 DUP6 DUP3 DUP7 ADD PUSH2 0x4F8 JUMP JUMPDEST SWAP2 POP POP SWAP3 POP SWAP3 SWAP1 POP JUMP JUMPDEST PUSH2 0x583 DUP2 PUSH2 0x68E JUMP JUMPDEST DUP3 MSTORE POP POP JUMP JUMPDEST PUSH1 0x0 PUSH2 0x596 PUSH1 0x26 DUP4 PUSH2 0x67D JUMP JUMPDEST SWAP2 POP PUSH2 0x5A1 DUP3 PUSH2 0x6CF JUMP JUMPDEST PUSH1 0x40 DUP3 ADD SWAP1 POP SWAP2 SWAP1 POP JUMP JUMPDEST PUSH1 0x0 PUSH2 0x5B9 PUSH1 0x20 DUP4 PUSH2 0x67D JUMP JUMPDEST SWAP2 POP PUSH2 0x5C4 DUP3 PUSH2 0x71E JUMP JUMPDEST PUSH1 0x20 DUP3 ADD SWAP1 POP SWAP2 SWAP1 POP JUMP JUMPDEST PUSH2 0x5D8 DUP2 PUSH2 0x6C0 JUMP JUMPDEST DUP3 MSTORE POP POP JUMP JUMPDEST PUSH1 0x0 PUSH1 0x20 DUP3 ADD SWAP1 POP PUSH2 0x5F3 PUSH1 0x0 DUP4 ADD DUP5 PUSH2 0x57A JUMP JUMPDEST SWAP3 SWAP2 POP POP JUMP JUMPDEST PUSH1 0x0 PUSH1 0x20 DUP3 ADD SWAP1 POP DUP2 DUP2 SUB PUSH1 0x0 DUP4 ADD MSTORE PUSH2 0x612 DUP2 PUSH2 0x589 JUMP JUMPDEST SWAP1 POP SWAP2 SWAP1 POP JUMP JUMPDEST PUSH1 0x0 PUSH1 0x20 DUP3 ADD SWAP1 POP DUP2 DUP2 SUB PUSH1 0x0 DUP4 ADD MSTORE PUSH2 0x632 DUP2 PUSH2 0x5AC JUMP JUMPDEST SWAP1 POP SWAP2 SWAP1 POP JUMP JUMPDEST PUSH1 0x0 PUSH1 0x20 DUP3 ADD SWAP1 POP PUSH2 0x64E PUSH1 0x0 DUP4 ADD DUP5 PUSH2 0x5CF JUMP JUMPDEST SWAP3 SWAP2 POP POP JUMP JUMPDEST PUSH1 0x0 PUSH1 0x40 DUP3 ADD SWAP1 POP PUSH2 0x669 PUSH1 0x0 DUP4 ADD DUP6 PUSH2 0x5CF JUMP JUMPDEST PUSH2 0x676 PUSH1 0x20 DUP4 ADD DUP5 PUSH2 0x5CF JUMP JUMPDEST SWAP4 SWAP3 POP POP POP JUMP JUMPDEST PUSH1 0x0 DUP3 DUP3 MSTORE PUSH1 0x20 DUP3 ADD SWAP1 POP SWAP3 SWAP2 POP POP JUMP JUMPDEST PUSH1 0x0 PUSH2 0x699 DUP3 PUSH2 0x6A0 JUMP JUMPDEST SWAP1 POP SWAP2 SWAP1 POP JUMP JUMPDEST PUSH1 0x0 PUSH20 0xFFFFFFFFFFFFFFFFFFFFFFFFFFFFFFFFFFFFFFFF DUP3 AND SWAP1 POP SWAP2 SWAP1 POP JUMP JUMPDEST PUSH1 0x0 DUP2 SWAP1 POP SWAP2 SWAP1 POP JUMP JUMPDEST PUSH1 0x0 DUP1 REVERT JUMPDEST PUSH32 0x4F776E61626C653A206E6577206F776E657220697320746865207A65726F2061 PUSH1 0x0 DUP3 ADD MSTORE PUSH32 0x6464726573730000000000000000000000000000000000000000000000000000 PUSH1 0x20 DUP3 ADD MSTORE POP JUMP JUMPDEST PUSH32 0x4F776E61626C653A2063616C6C6572206973206E6F7420746865206F776E6572 PUSH1 0x0 DUP3 ADD MSTORE POP JUMP JUMPDEST PUSH2 0x750 DUP2 PUSH2 0x68E JUMP JUMPDEST DUP2 EQ PUSH2 0x75B JUMPI PUSH1 0x0 DUP1 REVERT JUMPDEST POP JUMP JUMPDEST PUSH2 0x767 DUP2 PUSH2 0x6C0 JUMP JUMPDEST DUP2 EQ PUSH2 0x772 JUMPI PUSH1 0x0 DUP1 REVERT JUMPDEST POP JUMP INVALID LOG2 PUSH5 0x6970667358 0x22 SLT KECCAK256 0xAF 0xBA MLOAD PUSH23 0xE1EE07209ED83E6E8AFD631C196EB06BD02351CE0CBF07 SMOD CALLDATASIZE BLOCKHASH SELFBALANCE TIMESTAMP PUSH5 0x736F6C6343 STOP ADDMOD SMOD STOP CALLER "
				},
				"gasEstimates": {
					"creation": {
						"codeDepositCost": "392600",
						"executionCost": "infinite",
						"totalCost": "infinite"
					},
					"external": {
						"addAllowance(address,uint256)": "infinite",
						"allowance(address)": "2792",
						"owner()": "2544",
						"renounceOwnership()": "30374",
						"transferOwnership(address)": "30767"
					},
					"internal": {
						"isOwner()": "infinite",
						"reduceAllowance(address,uint256)": "infinite"
					}
				},
				"methodIdentifiers": {
					"addAllowance(address,uint256)": "f3c40c4b",
					"allowance(address)": "3e5beab9",
					"owner()": "8da5cb5b",
					"renounceOwnership()": "715018a6",
					"transferOwnership(address)": "f2fde38b"
				}
			},
			"storageLayout": {
				"storage": [
					{
						"astId": 196,
						"contract": "artifacts/lab-2/SharedWalletOptimized.sol:Allowance",
						"label": "_owner",
						"offset": 0,
						"slot": "0",
						"type": "t_address"
					},
					{
						"astId": 18,
						"contract": "artifacts/lab-2/SharedWalletOptimized.sol:Allowance",
						"label": "allowance",
						"offset": 0,
						"slot": "1",
						"type": "t_mapping(t_address,t_uint256)"
					}
				],
				"types": {
					"t_address": {
						"encoding": "inplace",
						"label": "address",
						"numberOfBytes": "20"
					},
					"t_mapping(t_address,t_uint256)": {
						"encoding": "mapping",
						"key": "t_address",
						"label": "mapping(address => uint256)",
						"numberOfBytes": "32",
						"value": "t_uint256"
					},
					"t_uint256": {
						"encoding": "inplace",
						"label": "uint256",
						"numberOfBytes": "32"
					}
				}
			},
			"userdoc": {
				"kind": "user",
				"methods": {},
				"version": 1
			}
		}
	}
}