{
	"artifacts/lab-2/SharedWallet.sol": {
		"SharedWallet": {
			"abi": [
				{
					"inputs": [
						{
							"internalType": "address payable",
							"name": "_to",
							"type": "address"
						},
						{
							"internalType": "uint256",
							"name": "_amount",
							"type": "uint256"
						}
					],
					"name": "withdrawMoney",
					"outputs": [],
					"stateMutability": "nonpayable",
					"type": "function"
				},
				{
					"stateMutability": "payable",
					"type": "receive"
				}
			],
			"devdoc": {
				"kind": "dev",
				"methods": {},
				"version": 1
			},
			"evm": {
				"assembly": "    /* \"artifacts/lab-2/SharedWallet.sol\":62:312  contract SharedWallet {... */\n  mstore(0x40, 0x80)\n  callvalue\n  dup1\n  iszero\n  tag_1\n  jumpi\n  0x00\n  dup1\n  revert\ntag_1:\n  pop\n  dataSize(sub_0)\n  dup1\n  dataOffset(sub_0)\n  0x00\n  codecopy\n  0x00\n  return\nstop\n\nsub_0: assembly {\n        /* \"artifacts/lab-2/SharedWallet.sol\":62:312  contract SharedWallet {... */\n      mstore(0x40, 0x80)\n      jumpi(tag_1, lt(calldatasize, 0x04))\n      shr(0xe0, calldataload(0x00))\n      dup1\n      0xf274c897\n      eq\n      tag_3\n      jumpi\n      jump(tag_2)\n    tag_1:\n      jumpi(tag_2, calldatasize)\n      stop\n    tag_2:\n      0x00\n      dup1\n      revert\n        /* \"artifacts/lab-2/SharedWallet.sol\":166:269  function withdrawMoney(address payable _to, uint _amount) public {... */\n    tag_3:\n      callvalue\n      dup1\n      iszero\n      tag_6\n      jumpi\n      0x00\n      dup1\n      revert\n    tag_6:\n      pop\n      tag_7\n      0x04\n      dup1\n      calldatasize\n      sub\n      dup2\n      add\n      swap1\n      tag_8\n      swap2\n      swap1\n      tag_9\n      jump\t// in\n    tag_8:\n      tag_10\n      jump\t// in\n    tag_7:\n      stop\n    tag_10:\n        /* \"artifacts/lab-2/SharedWallet.sol\":241:244  _to */\n      dup2\n        /* \"artifacts/lab-2/SharedWallet.sol\":241:253  _to.transfer */\n      0xffffffffffffffffffffffffffffffffffffffff\n      and\n        /* \"artifacts/lab-2/SharedWallet.sol\":241:262  _to.transfer(_amount) */\n      0x08fc\n        /* \"artifacts/lab-2/SharedWallet.sol\":254:261  _amount */\n      dup3\n        /* \"artifacts/lab-2/SharedWallet.sol\":241:262  _to.transfer(_amount) */\n      swap1\n      dup2\n      iszero\n      mul\n      swap1\n      mload(0x40)\n      0x00\n      mload(0x40)\n      dup1\n      dup4\n      sub\n      dup2\n      dup6\n      dup9\n      dup9\n      call\n      swap4\n      pop\n      pop\n      pop\n      pop\n      iszero\n      dup1\n      iszero\n      tag_13\n      jumpi\n      returndatasize\n      0x00\n      dup1\n      returndatacopy\n      revert(0x00, returndatasize)\n    tag_13:\n      pop\n        /* \"artifacts/lab-2/SharedWallet.sol\":166:269  function withdrawMoney(address payable _to, uint _amount) public {... */\n      pop\n      pop\n      jump\t// out\n        /* \"#utility.yul\":7:162   */\n    tag_15:\n        /* \"#utility.yul\":61:66   */\n      0x00\n        /* \"#utility.yul\":99:105   */\n      dup2\n        /* \"#utility.yul\":86:106   */\n      calldataload\n        /* \"#utility.yul\":77:106   */\n      swap1\n      pop\n        /* \"#utility.yul\":115:156   */\n      tag_17\n        /* \"#utility.yul\":150:155   */\n      dup2\n        /* \"#utility.yul\":115:156   */\n      tag_18\n      jump\t// in\n    tag_17:\n        /* \"#utility.yul\":7:162   */\n      swap3\n      swap2\n      pop\n      pop\n      jump\t// out\n        /* \"#utility.yul\":168:307   */\n    tag_19:\n        /* \"#utility.yul\":214:219   */\n      0x00\n        /* \"#utility.yul\":252:258   */\n      dup2\n        /* \"#utility.yul\":239:259   */\n      calldataload\n        /* \"#utility.yul\":230:259   */\n      swap1\n      pop\n        /* \"#utility.yul\":268:301   */\n      tag_21\n        /* \"#utility.yul\":295:300   */\n      dup2\n        /* \"#utility.yul\":268:301   */\n      tag_22\n      jump\t// in\n    tag_21:\n        /* \"#utility.yul\":168:307   */\n      swap3\n      swap2\n      pop\n      pop\n      jump\t// out\n        /* \"#utility.yul\":313:803   */\n    tag_9:\n        /* \"#utility.yul\":389:395   */\n      0x00\n        /* \"#utility.yul\":397:403   */\n      dup1\n        /* \"#utility.yul\":446:448   */\n      0x40\n        /* \"#utility.yul\":434:443   */\n      dup4\n        /* \"#utility.yul\":425:432   */\n      dup6\n        /* \"#utility.yul\":421:444   */\n      sub\n        /* \"#utility.yul\":417:449   */\n      slt\n        /* \"#utility.yul\":414:533   */\n      iszero\n      tag_24\n      jumpi\n        /* \"#utility.yul\":452:531   */\n      tag_25\n      tag_26\n      jump\t// in\n    tag_25:\n        /* \"#utility.yul\":414:533   */\n    tag_24:\n        /* \"#utility.yul\":572:573   */\n      0x00\n        /* \"#utility.yul\":597:658   */\n      tag_27\n        /* \"#utility.yul\":650:657   */\n      dup6\n        /* \"#utility.yul\":641:647   */\n      dup3\n        /* \"#utility.yul\":630:639   */\n      dup7\n        /* \"#utility.yul\":626:648   */\n      add\n        /* \"#utility.yul\":597:658   */\n      tag_15\n      jump\t// in\n    tag_27:\n        /* \"#utility.yul\":587:658   */\n      swap3\n      pop\n        /* \"#utility.yul\":543:668   */\n      pop\n        /* \"#utility.yul\":707:709   */\n      0x20\n        /* \"#utility.yul\":733:786   */\n      tag_28\n        /* \"#utility.yul\":778:785   */\n      dup6\n        /* \"#utility.yul\":769:775   */\n      dup3\n        /* \"#utility.yul\":758:767   */\n      dup7\n        /* \"#utility.yul\":754:776   */\n      add\n        /* \"#utility.yul\":733:786   */\n      tag_19\n      jump\t// in\n    tag_28:\n        /* \"#utility.yul\":723:786   */\n      swap2\n      pop\n        /* \"#utility.yul\":678:796   */\n      pop\n        /* \"#utility.yul\":313:803   */\n      swap3\n      pop\n      swap3\n      swap1\n      pop\n      jump\t// out\n        /* \"#utility.yul\":890:994   */\n    tag_31:\n        /* \"#utility.yul\":935:942   */\n      0x00\n        /* \"#utility.yul\":964:988   */\n      tag_33\n        /* \"#utility.yul\":982:987   */\n      dup3\n        /* \"#utility.yul\":964:988   */\n      tag_34\n      jump\t// in\n    tag_33:\n        /* \"#utility.yul\":953:988   */\n      swap1\n      pop\n        /* \"#utility.yul\":890:994   */\n      swap2\n      swap1\n      pop\n      jump\t// out\n        /* \"#utility.yul\":1000:1126   */\n    tag_34:\n        /* \"#utility.yul\":1037:1044   */\n      0x00\n        /* \"#utility.yul\":1077:1119   */\n      0xffffffffffffffffffffffffffffffffffffffff\n        /* \"#utility.yul\":1070:1075   */\n      dup3\n        /* \"#utility.yul\":1066:1120   */\n      and\n        /* \"#utility.yul\":1055:1120   */\n      swap1\n      pop\n        /* \"#utility.yul\":1000:1126   */\n      swap2\n      swap1\n      pop\n      jump\t// out\n        /* \"#utility.yul\":1132:1209   */\n    tag_36:\n        /* \"#utility.yul\":1169:1176   */\n      0x00\n        /* \"#utility.yul\":1198:1203   */\n      dup2\n        /* \"#utility.yul\":1187:1203   */\n      swap1\n      pop\n        /* \"#utility.yul\":1132:1209   */\n      swap2\n      swap1\n      pop\n      jump\t// out\n        /* \"#utility.yul\":1338:1455   */\n    tag_26:\n        /* \"#utility.yul\":1447:1448   */\n      0x00\n        /* \"#utility.yul\":1444:1445   */\n      dup1\n        /* \"#utility.yul\":1437:1449   */\n      revert\n        /* \"#utility.yul\":1461:1599   */\n    tag_18:\n        /* \"#utility.yul\":1542:1574   */\n      tag_42\n        /* \"#utility.yul\":1568:1573   */\n      dup2\n        /* \"#utility.yul\":1542:1574   */\n      tag_31\n      jump\t// in\n    tag_42:\n        /* \"#utility.yul\":1535:1540   */\n      dup2\n        /* \"#utility.yul\":1532:1575   */\n      eq\n        /* \"#utility.yul\":1522:1593   */\n      tag_43\n      jumpi\n        /* \"#utility.yul\":1589:1590   */\n      0x00\n        /* \"#utility.yul\":1586:1587   */\n      dup1\n        /* \"#utility.yul\":1579:1591   */\n      revert\n        /* \"#utility.yul\":1522:1593   */\n    tag_43:\n        /* \"#utility.yul\":1461:1599   */\n      pop\n      jump\t// out\n        /* \"#utility.yul\":1605:1727   */\n    tag_22:\n        /* \"#utility.yul\":1678:1702   */\n      tag_45\n        /* \"#utility.yul\":1696:1701   */\n      dup2\n        /* \"#utility.yul\":1678:1702   */\n      tag_36\n      jump\t// in\n    tag_45:\n        /* \"#utility.yul\":1671:1676   */\n      dup2\n        /* \"#utility.yul\":1668:1703   */\n      eq\n        /* \"#utility.yul\":1658:1721   */\n      tag_46\n      jumpi\n        /* \"#utility.yul\":1717:1718   */\n      0x00\n        /* \"#utility.yul\":1714:1715   */\n      dup1\n        /* \"#utility.yul\":1707:1719   */\n      revert\n        /* \"#utility.yul\":1658:1721   */\n    tag_46:\n        /* \"#utility.yul\":1605:1727   */\n      pop\n      jump\t// out\n\n    auxdata: 0xa2646970667358221220b3a02c36b5240f5e2c7cf05a8e52918374c692d7473e7b6f5fb12e88bd12193264736f6c63430008070033\n}\n",
				"bytecode": {
					"linkReferences": {},
					"object": "608060405234801561001057600080fd5b506101b1806100206000396000f3fe6080604052600436106100225760003560e01c8063f274c8971461002e57610029565b3661002957005b600080fd5b34801561003a57600080fd5b50610055600480360381019061005091906100cc565b610057565b005b8173ffffffffffffffffffffffffffffffffffffffff166108fc829081150290604051600060405180830381858888f1935050505015801561009d573d6000803e3d6000fd5b505050565b6000813590506100b18161014d565b92915050565b6000813590506100c681610164565b92915050565b600080604083850312156100e3576100e2610148565b5b60006100f1858286016100a2565b9250506020610102858286016100b7565b9150509250929050565b60006101178261011e565b9050919050565b600073ffffffffffffffffffffffffffffffffffffffff82169050919050565b6000819050919050565b600080fd5b6101568161010c565b811461016157600080fd5b50565b61016d8161013e565b811461017857600080fd5b5056fea2646970667358221220b3a02c36b5240f5e2c7cf05a8e52918374c692d7473e7b6f5fb12e88bd12193264736f6c63430008070033",
					"opcodes": "PUSH1 0x80 PUSH1 0x40 MSTORE CALLVALUE DUP1 ISZERO PUSH2 0x10 JUMPI PUSH1 0x0 DUP1 REVERT JUMPDEST POP PUSH2 0x1B1 DUP1 PUSH2 0x20 PUSH1 0x0 CODECOPY PUSH1 0x0 RETURN INVALID PUSH1 0x80 PUSH1 0x40 MSTORE PUSH1 0x4 CALLDATASIZE LT PUSH2 0x22 JUMPI PUSH1 0x0 CALLDATALOAD PUSH1 0xE0 SHR DUP1 PUSH4 0xF274C897 EQ PUSH2 0x2E JUMPI PUSH2 0x29 JUMP JUMPDEST CALLDATASIZE PUSH2 0x29 JUMPI STOP JUMPDEST PUSH1 0x0 DUP1 REVERT JUMPDEST CALLVALUE DUP1 ISZERO PUSH2 0x3A JUMPI PUSH1 0x0 DUP1 REVERT JUMPDEST POP PUSH2 0x55 PUSH1 0x4 DUP1 CALLDATASIZE SUB DUP2 ADD SWAP1 PUSH2 0x50 SWAP2 SWAP1 PUSH2 0xCC JUMP JUMPDEST PUSH2 0x57 JUMP JUMPDEST STOP JUMPDEST DUP2 PUSH20 0xFFFFFFFFFFFFFFFFFFFFFFFFFFFFFFFFFFFFFFFF AND PUSH2 0x8FC DUP3 SWAP1 DUP2 ISZERO MUL SWAP1 PUSH1 0x40 MLOAD PUSH1 0x0 PUSH1 0x40 MLOAD DUP1 DUP4 SUB DUP2 DUP6 DUP9 DUP9 CALL SWAP4 POP POP POP POP ISZERO DUP1 ISZERO PUSH2 0x9D JUMPI RETURNDATASIZE PUSH1 0x0 DUP1 RETURNDATACOPY RETURNDATASIZE PUSH1 0x0 REVERT JUMPDEST POP POP POP JUMP JUMPDEST PUSH1 0x0 DUP2 CALLDATALOAD SWAP1 POP PUSH2 0xB1 DUP2 PUSH2 0x14D JUMP JUMPDEST SWAP3 SWAP2 POP POP JUMP JUMPDEST PUSH1 0x0 DUP2 CALLDATALOAD SWAP1 POP PUSH2 0xC6 DUP2 PUSH2 0x164 JUMP JUMPDEST SWAP3 SWAP2 POP POP JUMP JUMPDEST PUSH1 0x0 DUP1 PUSH1 0x40 DUP4 DUP6 SUB SLT ISZERO PUSH2 0xE3 JUMPI PUSH2 0xE2 PUSH2 0x148 JUMP JUMPDEST JUMPDEST PUSH1 0x0 PUSH2 0xF1 DUP6 DUP3 DUP7 ADD PUSH2 0xA2 JUMP JUMPDEST SWAP3 POP POP PUSH1 0x20 PUSH2 0x102 DUP6 DUP3 DUP7 ADD PUSH2 0xB7 JUMP JUMPDEST SWAP2 POP POP SWAP3 POP SWAP3 SWAP1 POP JUMP JUMPDEST PUSH1 0x0 PUSH2 0x117 DUP3 PUSH2 0x11E JUMP JUMPDEST SWAP1 POP SWAP2 SWAP1 POP JUMP JUMPDEST PUSH1 0x0 PUSH20 0xFFFFFFFFFFFFFFFFFFFFFFFFFFFFFFFFFFFFFFFF DUP3 AND SWAP1 POP SWAP2 SWAP1 POP JUMP JUMPDEST PUSH1 0x0 DUP2 SWAP1 POP SWAP2 SWAP1 POP JUMP JUMPDEST PUSH1 0x0 DUP1 REVERT JUMPDEST PUSH2 0x156 DUP2 PUSH2 0x10C JUMP JUMPDEST DUP2 EQ PUSH2 0x161 JUMPI PUSH1 0x0 DUP1 REVERT JUMPDEST POP JUMP JUMPDEST PUSH2 0x16D DUP2 PUSH2 0x13E JUMP JUMPDEST DUP2 EQ PUSH2 0x178 JUMPI PUSH1 0x0 DUP1 REVERT JUMPDEST POP JUMP INVALID LOG2 PUSH5 0x6970667358 0x22 SLT KECCAK256 0xB3 LOG0 0x2C CALLDATASIZE 0xB5 0x24 0xF 0x5E 0x2C PUSH29 0xF05A8E52918374C692D7473E7B6F5FB12E88BD12193264736F6C634300 ADDMOD SMOD STOP CALLER "
				},
				"gasEstimates": {
					"creation": {
						"codeDepositCost": "86600",
						"executionCost": "135",
						"totalCost": "86735"
					},
					"external": {
						"withdrawMoney(address,uint256)": "infinite"
					}
				},
				"methodIdentifiers": {
					"withdrawMoney(address,uint256)": "f274c897"
				}
			},
			"storageLayout": {
				"storage": [],
				"types": null
			},
			"userdoc": {
				"kind": "user",
				"methods": {},
				"version": 1
			}
		}
	}
}