{
	"artifacts/SendMoneyExample.sol": {
		"SendMoneyExample": {
			"abi": [
				{
					"inputs": [],
					"name": "balanceReceived",
					"outputs": [
						{
							"internalType": "uint256",
							"name": "",
							"type": "uint256"
						}
					],
					"stateMutability": "view",
					"type": "function"
				},
				{
					"inputs": [],
					"name": "getBalance",
					"outputs": [
						{
							"internalType": "uint256",
							"name": "",
							"type": "uint256"
						}
					],
					"stateMutability": "view",
					"type": "function"
				},
				{
					"inputs": [],
					"name": "lockedUntil",
					"outputs": [
						{
							"internalType": "uint256",
							"name": "",
							"type": "uint256"
						}
					],
					"stateMutability": "view",
					"type": "function"
				},
				{
					"inputs": [],
					"name": "receiveMoney",
					"outputs": [],
					"stateMutability": "payable",
					"type": "function"
				},
				{
					"inputs": [],
					"name": "withdrawMoney",
					"outputs": [],
					"stateMutability": "nonpayable",
					"type": "function"
				},
				{
					"inputs": [
						{
							"internalType": "address payable",
							"name": "_to",
							"type": "address"
						}
					],
					"name": "withdrawMoneyTo",
					"outputs": [],
					"stateMutability": "nonpayable",
					"type": "function"
				}
			],
			"devdoc": {
				"kind": "dev",
				"methods": {},
				"version": 1
			},
			"evm": {
				"assembly": "    /* \"artifacts/SendMoneyExample.sol\":62:1714  contract SendMoneyExample {... */\n  mstore(0x40, 0x80)\n  callvalue\n  dup1\n  iszero\n  tag_1\n  jumpi\n  0x00\n  dup1\n  revert\ntag_1:\n  pop\n  dataSize(sub_0)\n  dup1\n  dataOffset(sub_0)\n  0x00\n  codecopy\n  0x00\n  return\nstop\n\nsub_0: assembly {\n        /* \"artifacts/SendMoneyExample.sol\":62:1714  contract SendMoneyExample {... */\n      mstore(0x40, 0x80)\n      jumpi(tag_1, lt(calldatasize, 0x04))\n      shr(0xe0, calldataload(0x00))\n      dup1\n      0x0ff8d8a5\n      eq\n      tag_2\n      jumpi\n      dup1\n      0x12065fe0\n      eq\n      tag_3\n      jumpi\n      dup1\n      0x52a90c42\n      eq\n      tag_4\n      jumpi\n      dup1\n      0x6d26ec18\n      eq\n      tag_5\n      jumpi\n      dup1\n      0xac446002\n      eq\n      tag_6\n      jumpi\n      dup1\n      0xce0617ec\n      eq\n      tag_7\n      jumpi\n    tag_1:\n      0x00\n      dup1\n      revert\n        /* \"artifacts/SendMoneyExample.sol\":1557:1712  function withdrawMoneyTo(address payable _to) public {... */\n    tag_2:\n      callvalue\n      dup1\n      iszero\n      tag_8\n      jumpi\n      0x00\n      dup1\n      revert\n    tag_8:\n      pop\n      tag_9\n      0x04\n      dup1\n      calldatasize\n      sub\n      dup2\n      add\n      swap1\n      tag_10\n      swap2\n      swap1\n      tag_11\n      jump\t// in\n    tag_10:\n      tag_12\n      jump\t// in\n    tag_9:\n      stop\n        /* \"artifacts/SendMoneyExample.sol\":757:1048  function getBalance() public view returns(uint) {... */\n    tag_3:\n      callvalue\n      dup1\n      iszero\n      tag_13\n      jumpi\n      0x00\n      dup1\n      revert\n    tag_13:\n      pop\n      tag_14\n      tag_15\n      jump\t// in\n    tag_14:\n      mload(0x40)\n      tag_16\n      swap2\n      swap1\n      tag_17\n      jump\t// in\n    tag_16:\n      mload(0x40)\n      dup1\n      swap2\n      sub\n      swap1\n      return\n        /* \"artifacts/SendMoneyExample.sol\":195:222  uint public balanceReceived */\n    tag_4:\n      callvalue\n      dup1\n      iszero\n      tag_18\n      jumpi\n      0x00\n      dup1\n      revert\n    tag_18:\n      pop\n      tag_19\n      tag_20\n      jump\t// in\n    tag_19:\n      mload(0x40)\n      tag_21\n      swap2\n      swap1\n      tag_17\n      jump\t// in\n    tag_21:\n      mload(0x40)\n      dup1\n      swap2\n      sub\n      swap1\n      return\n        /* \"artifacts/SendMoneyExample.sol\":258:751  function receiveMoney() public payable {... */\n    tag_5:\n      tag_22\n      tag_23\n      jump\t// in\n    tag_22:\n      stop\n        /* \"artifacts/SendMoneyExample.sol\":1054:1353  function withdrawMoney() public {... */\n    tag_6:\n      callvalue\n      dup1\n      iszero\n      tag_24\n      jumpi\n      0x00\n      dup1\n      revert\n    tag_24:\n      pop\n      tag_25\n      tag_26\n      jump\t// in\n    tag_25:\n      stop\n        /* \"artifacts/SendMoneyExample.sol\":228:251  uint public lockedUntil */\n    tag_7:\n      callvalue\n      dup1\n      iszero\n      tag_27\n      jumpi\n      0x00\n      dup1\n      revert\n    tag_27:\n      pop\n      tag_28\n      tag_29\n      jump\t// in\n    tag_28:\n      mload(0x40)\n      tag_30\n      swap2\n      swap1\n      tag_17\n      jump\t// in\n    tag_30:\n      mload(0x40)\n      dup1\n      swap2\n      sub\n      swap1\n      return\n        /* \"artifacts/SendMoneyExample.sol\":1557:1712  function withdrawMoneyTo(address payable _to) public {... */\n    tag_12:\n        /* \"artifacts/SendMoneyExample.sol\":1638:1653  block.timestamp */\n      timestamp\n        /* \"artifacts/SendMoneyExample.sol\":1624:1635  lockedUntil */\n      sload(0x01)\n        /* \"artifacts/SendMoneyExample.sol\":1624:1653  lockedUntil < block.timestamp */\n      lt\n        /* \"artifacts/SendMoneyExample.sol\":1620:1706  if (lockedUntil < block.timestamp) {... */\n      iszero\n      tag_32\n      jumpi\n        /* \"artifacts/SendMoneyExample.sol\":1669:1672  _to */\n      dup1\n        /* \"artifacts/SendMoneyExample.sol\":1669:1681  _to.transfer */\n      0xffffffffffffffffffffffffffffffffffffffff\n      and\n        /* \"artifacts/SendMoneyExample.sol\":1669:1695  _to.transfer(getBalance()) */\n      0x08fc\n        /* \"artifacts/SendMoneyExample.sol\":1682:1694  getBalance() */\n      tag_33\n        /* \"artifacts/SendMoneyExample.sol\":1682:1692  getBalance */\n      tag_15\n        /* \"artifacts/SendMoneyExample.sol\":1682:1694  getBalance() */\n      jump\t// in\n    tag_33:\n        /* \"artifacts/SendMoneyExample.sol\":1669:1695  _to.transfer(getBalance()) */\n      swap1\n      dup2\n      iszero\n      mul\n      swap1\n      mload(0x40)\n      0x00\n      mload(0x40)\n      dup1\n      dup4\n      sub\n      dup2\n      dup6\n      dup9\n      dup9\n      call\n      swap4\n      pop\n      pop\n      pop\n      pop\n      iszero\n      dup1\n      iszero\n      tag_35\n      jumpi\n      returndatasize\n      0x00\n      dup1\n      returndatacopy\n      revert(0x00, returndatasize)\n    tag_35:\n      pop\n        /* \"artifacts/SendMoneyExample.sol\":1620:1706  if (lockedUntil < block.timestamp) {... */\n    tag_32:\n        /* \"artifacts/SendMoneyExample.sol\":1557:1712  function withdrawMoneyTo(address payable _to) public {... */\n      pop\n      jump\t// out\n        /* \"artifacts/SendMoneyExample.sol\":757:1048  function getBalance() public view returns(uint) {... */\n    tag_15:\n        /* \"artifacts/SendMoneyExample.sol\":799:803  uint */\n      0x00\n        /* \"artifacts/SendMoneyExample.sol\":1020:1041  address(this).balance */\n      selfbalance\n        /* \"artifacts/SendMoneyExample.sol\":1013:1041  return address(this).balance */\n      swap1\n      pop\n        /* \"artifacts/SendMoneyExample.sol\":757:1048  function getBalance() public view returns(uint) {... */\n      swap1\n      jump\t// out\n        /* \"artifacts/SendMoneyExample.sol\":195:222  uint public balanceReceived */\n    tag_20:\n      sload(0x00)\n      dup2\n      jump\t// out\n        /* \"artifacts/SendMoneyExample.sol\":258:751  function receiveMoney() public payable {... */\n    tag_23:\n        /* \"artifacts/SendMoneyExample.sol\":643:652  msg.value */\n      callvalue\n        /* \"artifacts/SendMoneyExample.sol\":624:639  balanceReceived */\n      0x00\n      dup1\n        /* \"artifacts/SendMoneyExample.sol\":624:652  balanceReceived += msg.value */\n      dup3\n      dup3\n      sload\n      tag_38\n      swap2\n      swap1\n      tag_39\n      jump\t// in\n    tag_38:\n      swap3\n      pop\n      pop\n      dup2\n      swap1\n      sstore\n      pop\n        /* \"artifacts/SendMoneyExample.sol\":735:744  1 minutes */\n      0x3c\n        /* \"artifacts/SendMoneyExample.sol\":717:732  block.timestamp */\n      timestamp\n        /* \"artifacts/SendMoneyExample.sol\":717:744  block.timestamp + 1 minutes */\n      tag_40\n      swap2\n      swap1\n      tag_39\n      jump\t// in\n    tag_40:\n        /* \"artifacts/SendMoneyExample.sol\":703:714  lockedUntil */\n      0x01\n        /* \"artifacts/SendMoneyExample.sol\":703:744  lockedUntil = block.timestamp + 1 minutes */\n      dup2\n      swap1\n      sstore\n      pop\n        /* \"artifacts/SendMoneyExample.sol\":258:751  function receiveMoney() public payable {... */\n      jump\t// out\n        /* \"artifacts/SendMoneyExample.sol\":1054:1353  function withdrawMoney() public {... */\n    tag_26:\n        /* \"artifacts/SendMoneyExample.sol\":1114:1129  block.timestamp */\n      timestamp\n        /* \"artifacts/SendMoneyExample.sol\":1100:1111  lockedUntil */\n      sload(0x01)\n        /* \"artifacts/SendMoneyExample.sol\":1100:1129  lockedUntil < block.timestamp */\n      lt\n        /* \"artifacts/SendMoneyExample.sol\":1096:1347  if (lockedUntil < block.timestamp) {... */\n      iszero\n      tag_42\n      jumpi\n        /* \"artifacts/SendMoneyExample.sol\":1206:1224  address payable to */\n      0x00\n        /* \"artifacts/SendMoneyExample.sol\":1235:1245  msg.sender */\n      caller\n        /* \"artifacts/SendMoneyExample.sol\":1206:1246  address payable to = payable(msg.sender) */\n      swap1\n      pop\n        /* \"artifacts/SendMoneyExample.sol\":1311:1313  to */\n      dup1\n        /* \"artifacts/SendMoneyExample.sol\":1311:1322  to.transfer */\n      0xffffffffffffffffffffffffffffffffffffffff\n      and\n        /* \"artifacts/SendMoneyExample.sol\":1311:1336  to.transfer(getBalance()) */\n      0x08fc\n        /* \"artifacts/SendMoneyExample.sol\":1323:1335  getBalance() */\n      tag_43\n        /* \"artifacts/SendMoneyExample.sol\":1323:1333  getBalance */\n      tag_15\n        /* \"artifacts/SendMoneyExample.sol\":1323:1335  getBalance() */\n      jump\t// in\n    tag_43:\n        /* \"artifacts/SendMoneyExample.sol\":1311:1336  to.transfer(getBalance()) */\n      swap1\n      dup2\n      iszero\n      mul\n      swap1\n      mload(0x40)\n      0x00\n      mload(0x40)\n      dup1\n      dup4\n      sub\n      dup2\n      dup6\n      dup9\n      dup9\n      call\n      swap4\n      pop\n      pop\n      pop\n      pop\n      iszero\n      dup1\n      iszero\n      tag_45\n      jumpi\n      returndatasize\n      0x00\n      dup1\n      returndatacopy\n      revert(0x00, returndatasize)\n    tag_45:\n      pop\n        /* \"artifacts/SendMoneyExample.sol\":1131:1347  {... */\n      pop\n        /* \"artifacts/SendMoneyExample.sol\":1096:1347  if (lockedUntil < block.timestamp) {... */\n    tag_42:\n        /* \"artifacts/SendMoneyExample.sol\":1054:1353  function withdrawMoney() public {... */\n      jump\t// out\n        /* \"artifacts/SendMoneyExample.sol\":228:251  uint public lockedUntil */\n    tag_29:\n      sload(0x01)\n      dup2\n      jump\t// out\n        /* \"#utility.yul\":7:162   */\n    tag_47:\n        /* \"#utility.yul\":61:66   */\n      0x00\n        /* \"#utility.yul\":99:105   */\n      dup2\n        /* \"#utility.yul\":86:106   */\n      calldataload\n        /* \"#utility.yul\":77:106   */\n      swap1\n      pop\n        /* \"#utility.yul\":115:156   */\n      tag_49\n        /* \"#utility.yul\":150:155   */\n      dup2\n        /* \"#utility.yul\":115:156   */\n      tag_50\n      jump\t// in\n    tag_49:\n        /* \"#utility.yul\":7:162   */\n      swap3\n      swap2\n      pop\n      pop\n      jump\t// out\n        /* \"#utility.yul\":168:513   */\n    tag_11:\n        /* \"#utility.yul\":235:241   */\n      0x00\n        /* \"#utility.yul\":284:286   */\n      0x20\n        /* \"#utility.yul\":272:281   */\n      dup3\n        /* \"#utility.yul\":263:270   */\n      dup5\n        /* \"#utility.yul\":259:282   */\n      sub\n        /* \"#utility.yul\":255:287   */\n      slt\n        /* \"#utility.yul\":252:371   */\n      iszero\n      tag_52\n      jumpi\n        /* \"#utility.yul\":290:369   */\n      tag_53\n      tag_54\n      jump\t// in\n    tag_53:\n        /* \"#utility.yul\":252:371   */\n    tag_52:\n        /* \"#utility.yul\":410:411   */\n      0x00\n        /* \"#utility.yul\":435:496   */\n      tag_55\n        /* \"#utility.yul\":488:495   */\n      dup5\n        /* \"#utility.yul\":479:485   */\n      dup3\n        /* \"#utility.yul\":468:477   */\n      dup6\n        /* \"#utility.yul\":464:486   */\n      add\n        /* \"#utility.yul\":435:496   */\n      tag_47\n      jump\t// in\n    tag_55:\n        /* \"#utility.yul\":425:496   */\n      swap2\n      pop\n        /* \"#utility.yul\":381:506   */\n      pop\n        /* \"#utility.yul\":168:513   */\n      swap3\n      swap2\n      pop\n      pop\n      jump\t// out\n        /* \"#utility.yul\":519:637   */\n    tag_56:\n        /* \"#utility.yul\":606:630   */\n      tag_58\n        /* \"#utility.yul\":624:629   */\n      dup2\n        /* \"#utility.yul\":606:630   */\n      tag_59\n      jump\t// in\n    tag_58:\n        /* \"#utility.yul\":601:604   */\n      dup3\n        /* \"#utility.yul\":594:631   */\n      mstore\n        /* \"#utility.yul\":519:637   */\n      pop\n      pop\n      jump\t// out\n        /* \"#utility.yul\":643:865   */\n    tag_17:\n        /* \"#utility.yul\":736:740   */\n      0x00\n        /* \"#utility.yul\":774:776   */\n      0x20\n        /* \"#utility.yul\":763:772   */\n      dup3\n        /* \"#utility.yul\":759:777   */\n      add\n        /* \"#utility.yul\":751:777   */\n      swap1\n      pop\n        /* \"#utility.yul\":787:858   */\n      tag_61\n        /* \"#utility.yul\":855:856   */\n      0x00\n        /* \"#utility.yul\":844:853   */\n      dup4\n        /* \"#utility.yul\":840:857   */\n      add\n        /* \"#utility.yul\":831:837   */\n      dup5\n        /* \"#utility.yul\":787:858   */\n      tag_56\n      jump\t// in\n    tag_61:\n        /* \"#utility.yul\":643:865   */\n      swap3\n      swap2\n      pop\n      pop\n      jump\t// out\n        /* \"#utility.yul\":952:1257   */\n    tag_39:\n        /* \"#utility.yul\":992:995   */\n      0x00\n        /* \"#utility.yul\":1011:1031   */\n      tag_65\n        /* \"#utility.yul\":1029:1030   */\n      dup3\n        /* \"#utility.yul\":1011:1031   */\n      tag_59\n      jump\t// in\n    tag_65:\n        /* \"#utility.yul\":1006:1031   */\n      swap2\n      pop\n        /* \"#utility.yul\":1045:1065   */\n      tag_66\n        /* \"#utility.yul\":1063:1064   */\n      dup4\n        /* \"#utility.yul\":1045:1065   */\n      tag_59\n      jump\t// in\n    tag_66:\n        /* \"#utility.yul\":1040:1065   */\n      swap3\n      pop\n        /* \"#utility.yul\":1199:1200   */\n      dup3\n        /* \"#utility.yul\":1131:1197   */\n      0xffffffffffffffffffffffffffffffffffffffffffffffffffffffffffffffff\n        /* \"#utility.yul\":1127:1201   */\n      sub\n        /* \"#utility.yul\":1124:1125   */\n      dup3\n        /* \"#utility.yul\":1121:1202   */\n      gt\n        /* \"#utility.yul\":1118:1225   */\n      iszero\n      tag_67\n      jumpi\n        /* \"#utility.yul\":1205:1223   */\n      tag_68\n      tag_69\n      jump\t// in\n    tag_68:\n        /* \"#utility.yul\":1118:1225   */\n    tag_67:\n        /* \"#utility.yul\":1249:1250   */\n      dup3\n        /* \"#utility.yul\":1246:1247   */\n      dup3\n        /* \"#utility.yul\":1242:1251   */\n      add\n        /* \"#utility.yul\":1235:1251   */\n      swap1\n      pop\n        /* \"#utility.yul\":952:1257   */\n      swap3\n      swap2\n      pop\n      pop\n      jump\t// out\n        /* \"#utility.yul\":1263:1367   */\n    tag_70:\n        /* \"#utility.yul\":1308:1315   */\n      0x00\n        /* \"#utility.yul\":1337:1361   */\n      tag_72\n        /* \"#utility.yul\":1355:1360   */\n      dup3\n        /* \"#utility.yul\":1337:1361   */\n      tag_73\n      jump\t// in\n    tag_72:\n        /* \"#utility.yul\":1326:1361   */\n      swap1\n      pop\n        /* \"#utility.yul\":1263:1367   */\n      swap2\n      swap1\n      pop\n      jump\t// out\n        /* \"#utility.yul\":1373:1499   */\n    tag_73:\n        /* \"#utility.yul\":1410:1417   */\n      0x00\n        /* \"#utility.yul\":1450:1492   */\n      0xffffffffffffffffffffffffffffffffffffffff\n        /* \"#utility.yul\":1443:1448   */\n      dup3\n        /* \"#utility.yul\":1439:1493   */\n      and\n        /* \"#utility.yul\":1428:1493   */\n      swap1\n      pop\n        /* \"#utility.yul\":1373:1499   */\n      swap2\n      swap1\n      pop\n      jump\t// out\n        /* \"#utility.yul\":1505:1582   */\n    tag_59:\n        /* \"#utility.yul\":1542:1549   */\n      0x00\n        /* \"#utility.yul\":1571:1576   */\n      dup2\n        /* \"#utility.yul\":1560:1576   */\n      swap1\n      pop\n        /* \"#utility.yul\":1505:1582   */\n      swap2\n      swap1\n      pop\n      jump\t// out\n        /* \"#utility.yul\":1588:1768   */\n    tag_69:\n        /* \"#utility.yul\":1636:1713   */\n      0x4e487b7100000000000000000000000000000000000000000000000000000000\n        /* \"#utility.yul\":1633:1634   */\n      0x00\n        /* \"#utility.yul\":1626:1714   */\n      mstore\n        /* \"#utility.yul\":1733:1737   */\n      0x11\n        /* \"#utility.yul\":1730:1731   */\n      0x04\n        /* \"#utility.yul\":1723:1738   */\n      mstore\n        /* \"#utility.yul\":1757:1761   */\n      0x24\n        /* \"#utility.yul\":1754:1755   */\n      0x00\n        /* \"#utility.yul\":1747:1762   */\n      revert\n        /* \"#utility.yul\":1897:2014   */\n    tag_54:\n        /* \"#utility.yul\":2006:2007   */\n      0x00\n        /* \"#utility.yul\":2003:2004   */\n      dup1\n        /* \"#utility.yul\":1996:2008   */\n      revert\n        /* \"#utility.yul\":2020:2158   */\n    tag_50:\n        /* \"#utility.yul\":2101:2133   */\n      tag_81\n        /* \"#utility.yul\":2127:2132   */\n      dup2\n        /* \"#utility.yul\":2101:2133   */\n      tag_70\n      jump\t// in\n    tag_81:\n        /* \"#utility.yul\":2094:2099   */\n      dup2\n        /* \"#utility.yul\":2091:2134   */\n      eq\n        /* \"#utility.yul\":2081:2152   */\n      tag_82\n      jumpi\n        /* \"#utility.yul\":2148:2149   */\n      0x00\n        /* \"#utility.yul\":2145:2146   */\n      dup1\n        /* \"#utility.yul\":2138:2150   */\n      revert\n        /* \"#utility.yul\":2081:2152   */\n    tag_82:\n        /* \"#utility.yul\":2020:2158   */\n      pop\n      jump\t// out\n\n    auxdata: 0xa26469706673582212207646ecc55c10b7b1fbb717157098e915e551f011b40055977e8f306be28af6c264736f6c63430008070033\n}\n",
				"bytecode": {
					"linkReferences": {},
					"object": "608060405234801561001057600080fd5b506103a2806100206000396000f3fe6080604052600436106100555760003560e01c80630ff8d8a51461005a57806312065fe01461008357806352a90c42146100ae5780636d26ec18146100d9578063ac446002146100e3578063ce0617ec146100fa575b600080fd5b34801561006657600080fd5b50610081600480360381019061007c9190610238565b610125565b005b34801561008f57600080fd5b50610098610181565b6040516100a59190610274565b60405180910390f35b3480156100ba57600080fd5b506100c3610189565b6040516100d09190610274565b60405180910390f35b6100e161018f565b005b3480156100ef57600080fd5b506100f86101bc565b005b34801561010657600080fd5b5061010f61021d565b60405161011c9190610274565b60405180910390f35b42600154101561017e578073ffffffffffffffffffffffffffffffffffffffff166108fc610151610181565b9081150290604051600060405180830381858888f1935050505015801561017c573d6000803e3d6000fd5b505b50565b600047905090565b60005481565b346000808282546101a0919061028f565b92505081905550603c426101b4919061028f565b600181905550565b42600154101561021b5760003390508073ffffffffffffffffffffffffffffffffffffffff166108fc6101ed610181565b9081150290604051600060405180830381858888f19350505050158015610218573d6000803e3d6000fd5b50505b565b60015481565b60008135905061023281610355565b92915050565b60006020828403121561024e5761024d610350565b5b600061025c84828501610223565b91505092915050565b61026e81610317565b82525050565b60006020820190506102896000830184610265565b92915050565b600061029a82610317565b91506102a583610317565b9250827fffffffffffffffffffffffffffffffffffffffffffffffffffffffffffffffff038211156102da576102d9610321565b5b828201905092915050565b60006102f0826102f7565b9050919050565b600073ffffffffffffffffffffffffffffffffffffffff82169050919050565b6000819050919050565b7f4e487b7100000000000000000000000000000000000000000000000000000000600052601160045260246000fd5b600080fd5b61035e816102e5565b811461036957600080fd5b5056fea26469706673582212207646ecc55c10b7b1fbb717157098e915e551f011b40055977e8f306be28af6c264736f6c63430008070033",
					"opcodes": "PUSH1 0x80 PUSH1 0x40 MSTORE CALLVALUE DUP1 ISZERO PUSH2 0x10 JUMPI PUSH1 0x0 DUP1 REVERT JUMPDEST POP PUSH2 0x3A2 DUP1 PUSH2 0x20 PUSH1 0x0 CODECOPY PUSH1 0x0 RETURN INVALID PUSH1 0x80 PUSH1 0x40 MSTORE PUSH1 0x4 CALLDATASIZE LT PUSH2 0x55 JUMPI PUSH1 0x0 CALLDATALOAD PUSH1 0xE0 SHR DUP1 PUSH4 0xFF8D8A5 EQ PUSH2 0x5A JUMPI DUP1 PUSH4 0x12065FE0 EQ PUSH2 0x83 JUMPI DUP1 PUSH4 0x52A90C42 EQ PUSH2 0xAE JUMPI DUP1 PUSH4 0x6D26EC18 EQ PUSH2 0xD9 JUMPI DUP1 PUSH4 0xAC446002 EQ PUSH2 0xE3 JUMPI DUP1 PUSH4 0xCE0617EC EQ PUSH2 0xFA JUMPI JUMPDEST PUSH1 0x0 DUP1 REVERT JUMPDEST CALLVALUE DUP1 ISZERO PUSH2 0x66 JUMPI PUSH1 0x0 DUP1 REVERT JUMPDEST POP PUSH2 0x81 PUSH1 0x4 DUP1 CALLDATASIZE SUB DUP2 ADD SWAP1 PUSH2 0x7C SWAP2 SWAP1 PUSH2 0x238 JUMP JUMPDEST PUSH2 0x125 JUMP JUMPDEST STOP JUMPDEST CALLVALUE DUP1 ISZERO PUSH2 0x8F JUMPI PUSH1 0x0 DUP1 REVERT JUMPDEST POP PUSH2 0x98 PUSH2 0x181 JUMP JUMPDEST PUSH1 0x40 MLOAD PUSH2 0xA5 SWAP2 SWAP1 PUSH2 0x274 JUMP JUMPDEST PUSH1 0x40 MLOAD DUP1 SWAP2 SUB SWAP1 RETURN JUMPDEST CALLVALUE DUP1 ISZERO PUSH2 0xBA JUMPI PUSH1 0x0 DUP1 REVERT JUMPDEST POP PUSH2 0xC3 PUSH2 0x189 JUMP JUMPDEST PUSH1 0x40 MLOAD PUSH2 0xD0 SWAP2 SWAP1 PUSH2 0x274 JUMP JUMPDEST PUSH1 0x40 MLOAD DUP1 SWAP2 SUB SWAP1 RETURN JUMPDEST PUSH2 0xE1 PUSH2 0x18F JUMP JUMPDEST STOP JUMPDEST CALLVALUE DUP1 ISZERO PUSH2 0xEF JUMPI PUSH1 0x0 DUP1 REVERT JUMPDEST POP PUSH2 0xF8 PUSH2 0x1BC JUMP JUMPDEST STOP JUMPDEST CALLVALUE DUP1 ISZERO PUSH2 0x106 JUMPI PUSH1 0x0 DUP1 REVERT JUMPDEST POP PUSH2 0x10F PUSH2 0x21D JUMP JUMPDEST PUSH1 0x40 MLOAD PUSH2 0x11C SWAP2 SWAP1 PUSH2 0x274 JUMP JUMPDEST PUSH1 0x40 MLOAD DUP1 SWAP2 SUB SWAP1 RETURN JUMPDEST TIMESTAMP PUSH1 0x1 SLOAD LT ISZERO PUSH2 0x17E JUMPI DUP1 PUSH20 0xFFFFFFFFFFFFFFFFFFFFFFFFFFFFFFFFFFFFFFFF AND PUSH2 0x8FC PUSH2 0x151 PUSH2 0x181 JUMP JUMPDEST SWAP1 DUP2 ISZERO MUL SWAP1 PUSH1 0x40 MLOAD PUSH1 0x0 PUSH1 0x40 MLOAD DUP1 DUP4 SUB DUP2 DUP6 DUP9 DUP9 CALL SWAP4 POP POP POP POP ISZERO DUP1 ISZERO PUSH2 0x17C JUMPI RETURNDATASIZE PUSH1 0x0 DUP1 RETURNDATACOPY RETURNDATASIZE PUSH1 0x0 REVERT JUMPDEST POP JUMPDEST POP JUMP JUMPDEST PUSH1 0x0 SELFBALANCE SWAP1 POP SWAP1 JUMP JUMPDEST PUSH1 0x0 SLOAD DUP2 JUMP JUMPDEST CALLVALUE PUSH1 0x0 DUP1 DUP3 DUP3 SLOAD PUSH2 0x1A0 SWAP2 SWAP1 PUSH2 0x28F JUMP JUMPDEST SWAP3 POP POP DUP2 SWAP1 SSTORE POP PUSH1 0x3C TIMESTAMP PUSH2 0x1B4 SWAP2 SWAP1 PUSH2 0x28F JUMP JUMPDEST PUSH1 0x1 DUP2 SWAP1 SSTORE POP JUMP JUMPDEST TIMESTAMP PUSH1 0x1 SLOAD LT ISZERO PUSH2 0x21B JUMPI PUSH1 0x0 CALLER SWAP1 POP DUP1 PUSH20 0xFFFFFFFFFFFFFFFFFFFFFFFFFFFFFFFFFFFFFFFF AND PUSH2 0x8FC PUSH2 0x1ED PUSH2 0x181 JUMP JUMPDEST SWAP1 DUP2 ISZERO MUL SWAP1 PUSH1 0x40 MLOAD PUSH1 0x0 PUSH1 0x40 MLOAD DUP1 DUP4 SUB DUP2 DUP6 DUP9 DUP9 CALL SWAP4 POP POP POP POP ISZERO DUP1 ISZERO PUSH2 0x218 JUMPI RETURNDATASIZE PUSH1 0x0 DUP1 RETURNDATACOPY RETURNDATASIZE PUSH1 0x0 REVERT JUMPDEST POP POP JUMPDEST JUMP JUMPDEST PUSH1 0x1 SLOAD DUP2 JUMP JUMPDEST PUSH1 0x0 DUP2 CALLDATALOAD SWAP1 POP PUSH2 0x232 DUP2 PUSH2 0x355 JUMP JUMPDEST SWAP3 SWAP2 POP POP JUMP JUMPDEST PUSH1 0x0 PUSH1 0x20 DUP3 DUP5 SUB SLT ISZERO PUSH2 0x24E JUMPI PUSH2 0x24D PUSH2 0x350 JUMP JUMPDEST JUMPDEST PUSH1 0x0 PUSH2 0x25C DUP5 DUP3 DUP6 ADD PUSH2 0x223 JUMP JUMPDEST SWAP2 POP POP SWAP3 SWAP2 POP POP JUMP JUMPDEST PUSH2 0x26E DUP2 PUSH2 0x317 JUMP JUMPDEST DUP3 MSTORE POP POP JUMP JUMPDEST PUSH1 0x0 PUSH1 0x20 DUP3 ADD SWAP1 POP PUSH2 0x289 PUSH1 0x0 DUP4 ADD DUP5 PUSH2 0x265 JUMP JUMPDEST SWAP3 SWAP2 POP POP JUMP JUMPDEST PUSH1 0x0 PUSH2 0x29A DUP3 PUSH2 0x317 JUMP JUMPDEST SWAP2 POP PUSH2 0x2A5 DUP4 PUSH2 0x317 JUMP JUMPDEST SWAP3 POP DUP3 PUSH32 0xFFFFFFFFFFFFFFFFFFFFFFFFFFFFFFFFFFFFFFFFFFFFFFFFFFFFFFFFFFFFFFFF SUB DUP3 GT ISZERO PUSH2 0x2DA JUMPI PUSH2 0x2D9 PUSH2 0x321 JUMP JUMPDEST JUMPDEST DUP3 DUP3 ADD SWAP1 POP SWAP3 SWAP2 POP POP JUMP JUMPDEST PUSH1 0x0 PUSH2 0x2F0 DUP3 PUSH2 0x2F7 JUMP JUMPDEST SWAP1 POP SWAP2 SWAP1 POP JUMP JUMPDEST PUSH1 0x0 PUSH20 0xFFFFFFFFFFFFFFFFFFFFFFFFFFFFFFFFFFFFFFFF DUP3 AND SWAP1 POP SWAP2 SWAP1 POP JUMP JUMPDEST PUSH1 0x0 DUP2 SWAP1 POP SWAP2 SWAP1 POP JUMP JUMPDEST PUSH32 0x4E487B7100000000000000000000000000000000000000000000000000000000 PUSH1 0x0 MSTORE PUSH1 0x11 PUSH1 0x4 MSTORE PUSH1 0x24 PUSH1 0x0 REVERT JUMPDEST PUSH1 0x0 DUP1 REVERT JUMPDEST PUSH2 0x35E DUP2 PUSH2 0x2E5 JUMP JUMPDEST DUP2 EQ PUSH2 0x369 JUMPI PUSH1 0x0 DUP1 REVERT JUMPDEST POP JUMP INVALID LOG2 PUSH5 0x6970667358 0x22 SLT KECCAK256 PUSH23 0x46ECC55C10B7B1FBB717157098E915E551F011B4005597 PUSH31 0x8F306BE28AF6C264736F6C6343000807003300000000000000000000000000 "
				},
				"gasEstimates": {
					"creation": {
						"codeDepositCost": "186000",
						"executionCost": "232",
						"totalCost": "186232"
					},
					"external": {
						"balanceReceived()": "2451",
						"getBalance()": "339",
						"lockedUntil()": "2517",
						"receiveMoney()": "infinite",
						"withdrawMoney()": "infinite",
						"withdrawMoneyTo(address)": "infinite"
					}
				},
				"methodIdentifiers": {
					"balanceReceived()": "52a90c42",
					"getBalance()": "12065fe0",
					"lockedUntil()": "ce0617ec",
					"receiveMoney()": "6d26ec18",
					"withdrawMoney()": "ac446002",
					"withdrawMoneyTo(address)": "0ff8d8a5"
				}
			},
			"storageLayout": {
				"storage": [
					{
						"astId": 3,
						"contract": "artifacts/SendMoneyExample.sol:SendMoneyExample",
						"label": "balanceReceived",
						"offset": 0,
						"slot": "0",
						"type": "t_uint256"
					},
					{
						"astId": 5,
						"contract": "artifacts/SendMoneyExample.sol:SendMoneyExample",
						"label": "lockedUntil",
						"offset": 0,
						"slot": "1",
						"type": "t_uint256"
					}
				],
				"types": {
					"t_uint256": {
						"encoding": "inplace",
						"label": "uint256",
						"numberOfBytes": "32"
					}
				}
			},
			"userdoc": {
				"kind": "user",
				"methods": {},
				"version": 1
			}
		}
	}
}