{
	"artifacts/SendMoneyExample.sol": {
		"SendMoneyExample": {
			"abi": [
				{
					"inputs": [],
					"name": "balanceReceived",
					"outputs": [
						{
							"internalType": "uint256",
							"name": "",
							"type": "uint256"
						}
					],
					"stateMutability": "view",
					"type": "function"
				},
				{
					"inputs": [],
					"name": "getBalance",
					"outputs": [
						{
							"internalType": "uint256",
							"name": "",
							"type": "uint256"
						}
					],
					"stateMutability": "view",
					"type": "function"
				},
				{
					"inputs": [],
					"name": "receiveMoney",
					"outputs": [],
					"stateMutability": "payable",
					"type": "function"
				},
				{
					"inputs": [],
					"name": "withdrawMoney",
					"outputs": [],
					"stateMutability": "nonpayable",
					"type": "function"
				},
				{
					"inputs": [
						{
							"internalType": "address payable",
							"name": "_to",
							"type": "address"
						}
					],
					"name": "withdrawMoneyTo",
					"outputs": [],
					"stateMutability": "nonpayable",
					"type": "function"
				}
			],
			"devdoc": {
				"kind": "dev",
				"methods": {},
				"version": 1
			},
			"evm": {
				"assembly": "    /* \"artifacts/SendMoneyExample.sol\":62:1265  contract SendMoneyExample {... */\n  mstore(0x40, 0x80)\n  callvalue\n  dup1\n  iszero\n  tag_1\n  jumpi\n  0x00\n  dup1\n  revert\ntag_1:\n  pop\n  dataSize(sub_0)\n  dup1\n  dataOffset(sub_0)\n  0x00\n  codecopy\n  0x00\n  return\nstop\n\nsub_0: assembly {\n        /* \"artifacts/SendMoneyExample.sol\":62:1265  contract SendMoneyExample {... */\n      mstore(0x40, 0x80)\n      jumpi(tag_1, lt(calldatasize, 0x04))\n      shr(0xe0, calldataload(0x00))\n      dup1\n      0x0ff8d8a5\n      eq\n      tag_2\n      jumpi\n      dup1\n      0x12065fe0\n      eq\n      tag_3\n      jumpi\n      dup1\n      0x52a90c42\n      eq\n      tag_4\n      jumpi\n      dup1\n      0x6d26ec18\n      eq\n      tag_5\n      jumpi\n      dup1\n      0xac446002\n      eq\n      tag_6\n      jumpi\n    tag_1:\n      0x00\n      dup1\n      revert\n        /* \"artifacts/SendMoneyExample.sol\":1167:1263  function withdrawMoneyTo(address payable _to) public {... */\n    tag_2:\n      callvalue\n      dup1\n      iszero\n      tag_7\n      jumpi\n      0x00\n      dup1\n      revert\n    tag_7:\n      pop\n      tag_8\n      0x04\n      dup1\n      calldatasize\n      sub\n      dup2\n      add\n      swap1\n      tag_9\n      swap2\n      swap1\n      tag_10\n      jump\t// in\n    tag_9:\n      tag_11\n      jump\t// in\n    tag_8:\n      stop\n        /* \"artifacts/SendMoneyExample.sol\":636:927  function getBalance() public view returns(uint) {... */\n    tag_3:\n      callvalue\n      dup1\n      iszero\n      tag_12\n      jumpi\n      0x00\n      dup1\n      revert\n    tag_12:\n      pop\n      tag_13\n      tag_14\n      jump\t// in\n    tag_13:\n      mload(0x40)\n      tag_15\n      swap2\n      swap1\n      tag_16\n      jump\t// in\n    tag_15:\n      mload(0x40)\n      dup1\n      swap2\n      sub\n      swap1\n      return\n        /* \"artifacts/SendMoneyExample.sol\":195:222  uint public balanceReceived */\n    tag_4:\n      callvalue\n      dup1\n      iszero\n      tag_17\n      jumpi\n      0x00\n      dup1\n      revert\n    tag_17:\n      pop\n      tag_18\n      tag_19\n      jump\t// in\n    tag_18:\n      mload(0x40)\n      tag_20\n      swap2\n      swap1\n      tag_16\n      jump\t// in\n    tag_20:\n      mload(0x40)\n      dup1\n      swap2\n      sub\n      swap1\n      return\n        /* \"artifacts/SendMoneyExample.sol\":229:630  function receiveMoney() public payable {... */\n    tag_5:\n      tag_21\n      tag_22\n      jump\t// in\n    tag_21:\n      stop\n        /* \"artifacts/SendMoneyExample.sol\":933:1161  function withdrawMoney() public {... */\n    tag_6:\n      callvalue\n      dup1\n      iszero\n      tag_23\n      jumpi\n      0x00\n      dup1\n      revert\n    tag_23:\n      pop\n      tag_24\n      tag_25\n      jump\t// in\n    tag_24:\n      stop\n        /* \"artifacts/SendMoneyExample.sol\":1167:1263  function withdrawMoneyTo(address payable _to) public {... */\n    tag_11:\n        /* \"artifacts/SendMoneyExample.sol\":1230:1233  _to */\n      dup1\n        /* \"artifacts/SendMoneyExample.sol\":1230:1242  _to.transfer */\n      0xffffffffffffffffffffffffffffffffffffffff\n      and\n        /* \"artifacts/SendMoneyExample.sol\":1230:1256  _to.transfer(getBalance()) */\n      0x08fc\n        /* \"artifacts/SendMoneyExample.sol\":1243:1255  getBalance() */\n      tag_27\n        /* \"artifacts/SendMoneyExample.sol\":1243:1253  getBalance */\n      tag_14\n        /* \"artifacts/SendMoneyExample.sol\":1243:1255  getBalance() */\n      jump\t// in\n    tag_27:\n        /* \"artifacts/SendMoneyExample.sol\":1230:1256  _to.transfer(getBalance()) */\n      swap1\n      dup2\n      iszero\n      mul\n      swap1\n      mload(0x40)\n      0x00\n      mload(0x40)\n      dup1\n      dup4\n      sub\n      dup2\n      dup6\n      dup9\n      dup9\n      call\n      swap4\n      pop\n      pop\n      pop\n      pop\n      iszero\n      dup1\n      iszero\n      tag_29\n      jumpi\n      returndatasize\n      0x00\n      dup1\n      returndatacopy\n      revert(0x00, returndatasize)\n    tag_29:\n      pop\n        /* \"artifacts/SendMoneyExample.sol\":1167:1263  function withdrawMoneyTo(address payable _to) public {... */\n      pop\n      jump\t// out\n        /* \"artifacts/SendMoneyExample.sol\":636:927  function getBalance() public view returns(uint) {... */\n    tag_14:\n        /* \"artifacts/SendMoneyExample.sol\":678:682  uint */\n      0x00\n        /* \"artifacts/SendMoneyExample.sol\":899:920  address(this).balance */\n      selfbalance\n        /* \"artifacts/SendMoneyExample.sol\":892:920  return address(this).balance */\n      swap1\n      pop\n        /* \"artifacts/SendMoneyExample.sol\":636:927  function getBalance() public view returns(uint) {... */\n      swap1\n      jump\t// out\n        /* \"artifacts/SendMoneyExample.sol\":195:222  uint public balanceReceived */\n    tag_19:\n      sload(0x00)\n      dup2\n      jump\t// out\n        /* \"artifacts/SendMoneyExample.sol\":229:630  function receiveMoney() public payable {... */\n    tag_22:\n        /* \"artifacts/SendMoneyExample.sol\":614:623  msg.value */\n      callvalue\n        /* \"artifacts/SendMoneyExample.sol\":595:610  balanceReceived */\n      0x00\n      dup1\n        /* \"artifacts/SendMoneyExample.sol\":595:623  balanceReceived += msg.value */\n      dup3\n      dup3\n      sload\n      tag_32\n      swap2\n      swap1\n      tag_33\n      jump\t// in\n    tag_32:\n      swap3\n      pop\n      pop\n      dup2\n      swap1\n      sstore\n      pop\n        /* \"artifacts/SendMoneyExample.sol\":229:630  function receiveMoney() public payable {... */\n      jump\t// out\n        /* \"artifacts/SendMoneyExample.sol\":933:1161  function withdrawMoney() public {... */\n    tag_25:\n        /* \"artifacts/SendMoneyExample.sol\":1032:1050  address payable to */\n      0x00\n        /* \"artifacts/SendMoneyExample.sol\":1061:1071  msg.sender */\n      caller\n        /* \"artifacts/SendMoneyExample.sol\":1032:1072  address payable to = payable(msg.sender) */\n      swap1\n      pop\n        /* \"artifacts/SendMoneyExample.sol\":1129:1131  to */\n      dup1\n        /* \"artifacts/SendMoneyExample.sol\":1129:1140  to.transfer */\n      0xffffffffffffffffffffffffffffffffffffffff\n      and\n        /* \"artifacts/SendMoneyExample.sol\":1129:1154  to.transfer(getBalance()) */\n      0x08fc\n        /* \"artifacts/SendMoneyExample.sol\":1141:1153  getBalance() */\n      tag_35\n        /* \"artifacts/SendMoneyExample.sol\":1141:1151  getBalance */\n      tag_14\n        /* \"artifacts/SendMoneyExample.sol\":1141:1153  getBalance() */\n      jump\t// in\n    tag_35:\n        /* \"artifacts/SendMoneyExample.sol\":1129:1154  to.transfer(getBalance()) */\n      swap1\n      dup2\n      iszero\n      mul\n      swap1\n      mload(0x40)\n      0x00\n      mload(0x40)\n      dup1\n      dup4\n      sub\n      dup2\n      dup6\n      dup9\n      dup9\n      call\n      swap4\n      pop\n      pop\n      pop\n      pop\n      iszero\n      dup1\n      iszero\n      tag_37\n      jumpi\n      returndatasize\n      0x00\n      dup1\n      returndatacopy\n      revert(0x00, returndatasize)\n    tag_37:\n      pop\n        /* \"artifacts/SendMoneyExample.sol\":965:1161  {... */\n      pop\n        /* \"artifacts/SendMoneyExample.sol\":933:1161  function withdrawMoney() public {... */\n      jump\t// out\n        /* \"#utility.yul\":7:162   */\n    tag_39:\n        /* \"#utility.yul\":61:66   */\n      0x00\n        /* \"#utility.yul\":99:105   */\n      dup2\n        /* \"#utility.yul\":86:106   */\n      calldataload\n        /* \"#utility.yul\":77:106   */\n      swap1\n      pop\n        /* \"#utility.yul\":115:156   */\n      tag_41\n        /* \"#utility.yul\":150:155   */\n      dup2\n        /* \"#utility.yul\":115:156   */\n      tag_42\n      jump\t// in\n    tag_41:\n        /* \"#utility.yul\":7:162   */\n      swap3\n      swap2\n      pop\n      pop\n      jump\t// out\n        /* \"#utility.yul\":168:513   */\n    tag_10:\n        /* \"#utility.yul\":235:241   */\n      0x00\n        /* \"#utility.yul\":284:286   */\n      0x20\n        /* \"#utility.yul\":272:281   */\n      dup3\n        /* \"#utility.yul\":263:270   */\n      dup5\n        /* \"#utility.yul\":259:282   */\n      sub\n        /* \"#utility.yul\":255:287   */\n      slt\n        /* \"#utility.yul\":252:371   */\n      iszero\n      tag_44\n      jumpi\n        /* \"#utility.yul\":290:369   */\n      tag_45\n      tag_46\n      jump\t// in\n    tag_45:\n        /* \"#utility.yul\":252:371   */\n    tag_44:\n        /* \"#utility.yul\":410:411   */\n      0x00\n        /* \"#utility.yul\":435:496   */\n      tag_47\n        /* \"#utility.yul\":488:495   */\n      dup5\n        /* \"#utility.yul\":479:485   */\n      dup3\n        /* \"#utility.yul\":468:477   */\n      dup6\n        /* \"#utility.yul\":464:486   */\n      add\n        /* \"#utility.yul\":435:496   */\n      tag_39\n      jump\t// in\n    tag_47:\n        /* \"#utility.yul\":425:496   */\n      swap2\n      pop\n        /* \"#utility.yul\":381:506   */\n      pop\n        /* \"#utility.yul\":168:513   */\n      swap3\n      swap2\n      pop\n      pop\n      jump\t// out\n        /* \"#utility.yul\":519:637   */\n    tag_48:\n        /* \"#utility.yul\":606:630   */\n      tag_50\n        /* \"#utility.yul\":624:629   */\n      dup2\n        /* \"#utility.yul\":606:630   */\n      tag_51\n      jump\t// in\n    tag_50:\n        /* \"#utility.yul\":601:604   */\n      dup3\n        /* \"#utility.yul\":594:631   */\n      mstore\n        /* \"#utility.yul\":519:637   */\n      pop\n      pop\n      jump\t// out\n        /* \"#utility.yul\":643:865   */\n    tag_16:\n        /* \"#utility.yul\":736:740   */\n      0x00\n        /* \"#utility.yul\":774:776   */\n      0x20\n        /* \"#utility.yul\":763:772   */\n      dup3\n        /* \"#utility.yul\":759:777   */\n      add\n        /* \"#utility.yul\":751:777   */\n      swap1\n      pop\n        /* \"#utility.yul\":787:858   */\n      tag_53\n        /* \"#utility.yul\":855:856   */\n      0x00\n        /* \"#utility.yul\":844:853   */\n      dup4\n        /* \"#utility.yul\":840:857   */\n      add\n        /* \"#utility.yul\":831:837   */\n      dup5\n        /* \"#utility.yul\":787:858   */\n      tag_48\n      jump\t// in\n    tag_53:\n        /* \"#utility.yul\":643:865   */\n      swap3\n      swap2\n      pop\n      pop\n      jump\t// out\n        /* \"#utility.yul\":952:1257   */\n    tag_33:\n        /* \"#utility.yul\":992:995   */\n      0x00\n        /* \"#utility.yul\":1011:1031   */\n      tag_57\n        /* \"#utility.yul\":1029:1030   */\n      dup3\n        /* \"#utility.yul\":1011:1031   */\n      tag_51\n      jump\t// in\n    tag_57:\n        /* \"#utility.yul\":1006:1031   */\n      swap2\n      pop\n        /* \"#utility.yul\":1045:1065   */\n      tag_58\n        /* \"#utility.yul\":1063:1064   */\n      dup4\n        /* \"#utility.yul\":1045:1065   */\n      tag_51\n      jump\t// in\n    tag_58:\n        /* \"#utility.yul\":1040:1065   */\n      swap3\n      pop\n        /* \"#utility.yul\":1199:1200   */\n      dup3\n        /* \"#utility.yul\":1131:1197   */\n      0xffffffffffffffffffffffffffffffffffffffffffffffffffffffffffffffff\n        /* \"#utility.yul\":1127:1201   */\n      sub\n        /* \"#utility.yul\":1124:1125   */\n      dup3\n        /* \"#utility.yul\":1121:1202   */\n      gt\n        /* \"#utility.yul\":1118:1225   */\n      iszero\n      tag_59\n      jumpi\n        /* \"#utility.yul\":1205:1223   */\n      tag_60\n      tag_61\n      jump\t// in\n    tag_60:\n        /* \"#utility.yul\":1118:1225   */\n    tag_59:\n        /* \"#utility.yul\":1249:1250   */\n      dup3\n        /* \"#utility.yul\":1246:1247   */\n      dup3\n        /* \"#utility.yul\":1242:1251   */\n      add\n        /* \"#utility.yul\":1235:1251   */\n      swap1\n      pop\n        /* \"#utility.yul\":952:1257   */\n      swap3\n      swap2\n      pop\n      pop\n      jump\t// out\n        /* \"#utility.yul\":1263:1367   */\n    tag_62:\n        /* \"#utility.yul\":1308:1315   */\n      0x00\n        /* \"#utility.yul\":1337:1361   */\n      tag_64\n        /* \"#utility.yul\":1355:1360   */\n      dup3\n        /* \"#utility.yul\":1337:1361   */\n      tag_65\n      jump\t// in\n    tag_64:\n        /* \"#utility.yul\":1326:1361   */\n      swap1\n      pop\n        /* \"#utility.yul\":1263:1367   */\n      swap2\n      swap1\n      pop\n      jump\t// out\n        /* \"#utility.yul\":1373:1499   */\n    tag_65:\n        /* \"#utility.yul\":1410:1417   */\n      0x00\n        /* \"#utility.yul\":1450:1492   */\n      0xffffffffffffffffffffffffffffffffffffffff\n        /* \"#utility.yul\":1443:1448   */\n      dup3\n        /* \"#utility.yul\":1439:1493   */\n      and\n        /* \"#utility.yul\":1428:1493   */\n      swap1\n      pop\n        /* \"#utility.yul\":1373:1499   */\n      swap2\n      swap1\n      pop\n      jump\t// out\n        /* \"#utility.yul\":1505:1582   */\n    tag_51:\n        /* \"#utility.yul\":1542:1549   */\n      0x00\n        /* \"#utility.yul\":1571:1576   */\n      dup2\n        /* \"#utility.yul\":1560:1576   */\n      swap1\n      pop\n        /* \"#utility.yul\":1505:1582   */\n      swap2\n      swap1\n      pop\n      jump\t// out\n        /* \"#utility.yul\":1588:1768   */\n    tag_61:\n        /* \"#utility.yul\":1636:1713   */\n      0x4e487b7100000000000000000000000000000000000000000000000000000000\n        /* \"#utility.yul\":1633:1634   */\n      0x00\n        /* \"#utility.yul\":1626:1714   */\n      mstore\n        /* \"#utility.yul\":1733:1737   */\n      0x11\n        /* \"#utility.yul\":1730:1731   */\n      0x04\n        /* \"#utility.yul\":1723:1738   */\n      mstore\n        /* \"#utility.yul\":1757:1761   */\n      0x24\n        /* \"#utility.yul\":1754:1755   */\n      0x00\n        /* \"#utility.yul\":1747:1762   */\n      revert\n        /* \"#utility.yul\":1897:2014   */\n    tag_46:\n        /* \"#utility.yul\":2006:2007   */\n      0x00\n        /* \"#utility.yul\":2003:2004   */\n      dup1\n        /* \"#utility.yul\":1996:2008   */\n      revert\n        /* \"#utility.yul\":2020:2158   */\n    tag_42:\n        /* \"#utility.yul\":2101:2133   */\n      tag_73\n        /* \"#utility.yul\":2127:2132   */\n      dup2\n        /* \"#utility.yul\":2101:2133   */\n      tag_62\n      jump\t// in\n    tag_73:\n        /* \"#utility.yul\":2094:2099   */\n      dup2\n        /* \"#utility.yul\":2091:2134   */\n      eq\n        /* \"#utility.yul\":2081:2152   */\n      tag_74\n      jumpi\n        /* \"#utility.yul\":2148:2149   */\n      0x00\n        /* \"#utility.yul\":2145:2146   */\n      dup1\n        /* \"#utility.yul\":2138:2150   */\n      revert\n        /* \"#utility.yul\":2081:2152   */\n    tag_74:\n        /* \"#utility.yul\":2020:2158   */\n      pop\n      jump\t// out\n\n    auxdata: 0xa264697066735822122018f107777be75d6ca4c31691eacfaa4f28f537afd3a66b0aca5b77b3275662b664736f6c63430008070033\n}\n",
				"bytecode": {
					"linkReferences": {},
					"object": "608060405234801561001057600080fd5b5061033d806100206000396000f3fe60806040526004361061004a5760003560e01c80630ff8d8a51461004f57806312065fe01461007857806352a90c42146100a35780636d26ec18146100ce578063ac446002146100d8575b600080fd5b34801561005b57600080fd5b50610076600480360381019061007191906101d3565b6100ef565b005b34801561008457600080fd5b5061008d610140565b60405161009a919061020f565b60405180910390f35b3480156100af57600080fd5b506100b8610148565b6040516100c5919061020f565b60405180910390f35b6100d661014e565b005b3480156100e457600080fd5b506100ed610168565b005b8073ffffffffffffffffffffffffffffffffffffffff166108fc610111610140565b9081150290604051600060405180830381858888f1935050505015801561013c573d6000803e3d6000fd5b5050565b600047905090565b60005481565b3460008082825461015f919061022a565b92505081905550565b60003390508073ffffffffffffffffffffffffffffffffffffffff166108fc61018f610140565b9081150290604051600060405180830381858888f193505050501580156101ba573d6000803e3d6000fd5b5050565b6000813590506101cd816102f0565b92915050565b6000602082840312156101e9576101e86102eb565b5b60006101f7848285016101be565b91505092915050565b610209816102b2565b82525050565b60006020820190506102246000830184610200565b92915050565b6000610235826102b2565b9150610240836102b2565b9250827fffffffffffffffffffffffffffffffffffffffffffffffffffffffffffffffff03821115610275576102746102bc565b5b828201905092915050565b600061028b82610292565b9050919050565b600073ffffffffffffffffffffffffffffffffffffffff82169050919050565b6000819050919050565b7f4e487b7100000000000000000000000000000000000000000000000000000000600052601160045260246000fd5b600080fd5b6102f981610280565b811461030457600080fd5b5056fea264697066735822122018f107777be75d6ca4c31691eacfaa4f28f537afd3a66b0aca5b77b3275662b664736f6c63430008070033",
					"opcodes": "PUSH1 0x80 PUSH1 0x40 MSTORE CALLVALUE DUP1 ISZERO PUSH2 0x10 JUMPI PUSH1 0x0 DUP1 REVERT JUMPDEST POP PUSH2 0x33D DUP1 PUSH2 0x20 PUSH1 0x0 CODECOPY PUSH1 0x0 RETURN INVALID PUSH1 0x80 PUSH1 0x40 MSTORE PUSH1 0x4 CALLDATASIZE LT PUSH2 0x4A JUMPI PUSH1 0x0 CALLDATALOAD PUSH1 0xE0 SHR DUP1 PUSH4 0xFF8D8A5 EQ PUSH2 0x4F JUMPI DUP1 PUSH4 0x12065FE0 EQ PUSH2 0x78 JUMPI DUP1 PUSH4 0x52A90C42 EQ PUSH2 0xA3 JUMPI DUP1 PUSH4 0x6D26EC18 EQ PUSH2 0xCE JUMPI DUP1 PUSH4 0xAC446002 EQ PUSH2 0xD8 JUMPI JUMPDEST PUSH1 0x0 DUP1 REVERT JUMPDEST CALLVALUE DUP1 ISZERO PUSH2 0x5B JUMPI PUSH1 0x0 DUP1 REVERT JUMPDEST POP PUSH2 0x76 PUSH1 0x4 DUP1 CALLDATASIZE SUB DUP2 ADD SWAP1 PUSH2 0x71 SWAP2 SWAP1 PUSH2 0x1D3 JUMP JUMPDEST PUSH2 0xEF JUMP JUMPDEST STOP JUMPDEST CALLVALUE DUP1 ISZERO PUSH2 0x84 JUMPI PUSH1 0x0 DUP1 REVERT JUMPDEST POP PUSH2 0x8D PUSH2 0x140 JUMP JUMPDEST PUSH1 0x40 MLOAD PUSH2 0x9A SWAP2 SWAP1 PUSH2 0x20F JUMP JUMPDEST PUSH1 0x40 MLOAD DUP1 SWAP2 SUB SWAP1 RETURN JUMPDEST CALLVALUE DUP1 ISZERO PUSH2 0xAF JUMPI PUSH1 0x0 DUP1 REVERT JUMPDEST POP PUSH2 0xB8 PUSH2 0x148 JUMP JUMPDEST PUSH1 0x40 MLOAD PUSH2 0xC5 SWAP2 SWAP1 PUSH2 0x20F JUMP JUMPDEST PUSH1 0x40 MLOAD DUP1 SWAP2 SUB SWAP1 RETURN JUMPDEST PUSH2 0xD6 PUSH2 0x14E JUMP JUMPDEST STOP JUMPDEST CALLVALUE DUP1 ISZERO PUSH2 0xE4 JUMPI PUSH1 0x0 DUP1 REVERT JUMPDEST POP PUSH2 0xED PUSH2 0x168 JUMP JUMPDEST STOP JUMPDEST DUP1 PUSH20 0xFFFFFFFFFFFFFFFFFFFFFFFFFFFFFFFFFFFFFFFF AND PUSH2 0x8FC PUSH2 0x111 PUSH2 0x140 JUMP JUMPDEST SWAP1 DUP2 ISZERO MUL SWAP1 PUSH1 0x40 MLOAD PUSH1 0x0 PUSH1 0x40 MLOAD DUP1 DUP4 SUB DUP2 DUP6 DUP9 DUP9 CALL SWAP4 POP POP POP POP ISZERO DUP1 ISZERO PUSH2 0x13C JUMPI RETURNDATASIZE PUSH1 0x0 DUP1 RETURNDATACOPY RETURNDATASIZE PUSH1 0x0 REVERT JUMPDEST POP POP JUMP JUMPDEST PUSH1 0x0 SELFBALANCE SWAP1 POP SWAP1 JUMP JUMPDEST PUSH1 0x0 SLOAD DUP2 JUMP JUMPDEST CALLVALUE PUSH1 0x0 DUP1 DUP3 DUP3 SLOAD PUSH2 0x15F SWAP2 SWAP1 PUSH2 0x22A JUMP JUMPDEST SWAP3 POP POP DUP2 SWAP1 SSTORE POP JUMP JUMPDEST PUSH1 0x0 CALLER SWAP1 POP DUP1 PUSH20 0xFFFFFFFFFFFFFFFFFFFFFFFFFFFFFFFFFFFFFFFF AND PUSH2 0x8FC PUSH2 0x18F PUSH2 0x140 JUMP JUMPDEST SWAP1 DUP2 ISZERO MUL SWAP1 PUSH1 0x40 MLOAD PUSH1 0x0 PUSH1 0x40 MLOAD DUP1 DUP4 SUB DUP2 DUP6 DUP9 DUP9 CALL SWAP4 POP POP POP POP ISZERO DUP1 ISZERO PUSH2 0x1BA JUMPI RETURNDATASIZE PUSH1 0x0 DUP1 RETURNDATACOPY RETURNDATASIZE PUSH1 0x0 REVERT JUMPDEST POP POP JUMP JUMPDEST PUSH1 0x0 DUP2 CALLDATALOAD SWAP1 POP PUSH2 0x1CD DUP2 PUSH2 0x2F0 JUMP JUMPDEST SWAP3 SWAP2 POP POP JUMP JUMPDEST PUSH1 0x0 PUSH1 0x20 DUP3 DUP5 SUB SLT ISZERO PUSH2 0x1E9 JUMPI PUSH2 0x1E8 PUSH2 0x2EB JUMP JUMPDEST JUMPDEST PUSH1 0x0 PUSH2 0x1F7 DUP5 DUP3 DUP6 ADD PUSH2 0x1BE JUMP JUMPDEST SWAP2 POP POP SWAP3 SWAP2 POP POP JUMP JUMPDEST PUSH2 0x209 DUP2 PUSH2 0x2B2 JUMP JUMPDEST DUP3 MSTORE POP POP JUMP JUMPDEST PUSH1 0x0 PUSH1 0x20 DUP3 ADD SWAP1 POP PUSH2 0x224 PUSH1 0x0 DUP4 ADD DUP5 PUSH2 0x200 JUMP JUMPDEST SWAP3 SWAP2 POP POP JUMP JUMPDEST PUSH1 0x0 PUSH2 0x235 DUP3 PUSH2 0x2B2 JUMP JUMPDEST SWAP2 POP PUSH2 0x240 DUP4 PUSH2 0x2B2 JUMP JUMPDEST SWAP3 POP DUP3 PUSH32 0xFFFFFFFFFFFFFFFFFFFFFFFFFFFFFFFFFFFFFFFFFFFFFFFFFFFFFFFFFFFFFFFF SUB DUP3 GT ISZERO PUSH2 0x275 JUMPI PUSH2 0x274 PUSH2 0x2BC JUMP JUMPDEST JUMPDEST DUP3 DUP3 ADD SWAP1 POP SWAP3 SWAP2 POP POP JUMP JUMPDEST PUSH1 0x0 PUSH2 0x28B DUP3 PUSH2 0x292 JUMP JUMPDEST SWAP1 POP SWAP2 SWAP1 POP JUMP JUMPDEST PUSH1 0x0 PUSH20 0xFFFFFFFFFFFFFFFFFFFFFFFFFFFFFFFFFFFFFFFF DUP3 AND SWAP1 POP SWAP2 SWAP1 POP JUMP JUMPDEST PUSH1 0x0 DUP2 SWAP1 POP SWAP2 SWAP1 POP JUMP JUMPDEST PUSH32 0x4E487B7100000000000000000000000000000000000000000000000000000000 PUSH1 0x0 MSTORE PUSH1 0x11 PUSH1 0x4 MSTORE PUSH1 0x24 PUSH1 0x0 REVERT JUMPDEST PUSH1 0x0 DUP1 REVERT JUMPDEST PUSH2 0x2F9 DUP2 PUSH2 0x280 JUMP JUMPDEST DUP2 EQ PUSH2 0x304 JUMPI PUSH1 0x0 DUP1 REVERT JUMPDEST POP JUMP INVALID LOG2 PUSH5 0x6970667358 0x22 SLT KECCAK256 XOR CALL SMOD PUSH24 0x7BE75D6CA4C31691EACFAA4F28F537AFD3A66B0ACA5B77B3 0x27 JUMP PUSH3 0xB66473 PUSH16 0x6C634300080700330000000000000000 "
				},
				"gasEstimates": {
					"creation": {
						"codeDepositCost": "165800",
						"executionCost": "208",
						"totalCost": "166008"
					},
					"external": {
						"balanceReceived()": "2451",
						"getBalance()": "339",
						"receiveMoney()": "infinite",
						"withdrawMoney()": "infinite",
						"withdrawMoneyTo(address)": "infinite"
					}
				},
				"methodIdentifiers": {
					"balanceReceived()": "52a90c42",
					"getBalance()": "12065fe0",
					"receiveMoney()": "6d26ec18",
					"withdrawMoney()": "ac446002",
					"withdrawMoneyTo(address)": "0ff8d8a5"
				}
			},
			"storageLayout": {
				"storage": [
					{
						"astId": 3,
						"contract": "artifacts/SendMoneyExample.sol:SendMoneyExample",
						"label": "balanceReceived",
						"offset": 0,
						"slot": "0",
						"type": "t_uint256"
					}
				],
				"types": {
					"t_uint256": {
						"encoding": "inplace",
						"label": "uint256",
						"numberOfBytes": "32"
					}
				}
			},
			"userdoc": {
				"kind": "user",
				"methods": {},
				"version": 1
			}
		}
	}
}